:020000040810E2
:1000000000800410AD071008610710086907100888
:100010007107100879071008810710080000000018
:10002000000000000000000000000000D13B1008AC
:100030008907100800000000613E1008893310088D
:10004000010810080108100801081008010810082C
:10005000010810080108100801081008010810081C
:10006000010810080108100801081008010810080C
:1000700001081008010810080108100801081008FC
:1000800001081008010810080108100801081008EC
:1000900001081008010810080108100801081008DC
:1000A00001081008010810080108100801081008CC
:1000B00001081008010810080108100801081008BC
:1000C00001081008010810080108100801081008AC
:1000D000010810080108100801081008010810089C
:1000E00001081008010810080000000001081008AD
:1000F000010810080108100801081008010810087C
:10010000010810080108100801081008010810086B
:1001100001081008010810080108100899071008C4
:10012000010810080108100801081008010810084B
:10013000010810080108100801081008010810083B
:10014000010810080108100800000000000000006D
:10015000010810080108100801081008010810081B
:10016000010810080108100801081008010810080B
:1001700001081008010810080108100801081008FB
:1001800001081008010810080108100801081008EB
:1001900001081008010810080108100801081008DB
:1001A00001081008010810080108100801081008CB
:1001B00001081008010810080108100801081008BB
:1001C00001081008010810080108100801081008AB
:1001D000010810080108100801081008010810089B
:1001E000010810080108100801081008010810088B
:1001F000010810080108100801081008010810087B
:10020000010810080108100801081008010810086A
:10021000010810080108100801081008010810085A
:10022000010810080108100801081008000000006B
:10023000010810080108100801081008010810083A
:10024000010810080108100801081008010810082A
:10025000010810080108100801081008010810081A
:10026000010810080108100801081008010810080A
:1002700001081008010810080108100801081008FA
:10028000010810080108100801081008000000000B
:08029000010810080108100824
:1002A00010B5054C237833B9044B13B10448AFF3B0
:1002B00000800123237010BD6400001000000000C6
:1002C000485D100808B5034B1BB103490348AFF361
:1002D000008008BD0000000068000010485D1008A4
:1002E00080B400AF094BD3F88830084A43F4700358
:1002F000C2F88830054B1B69044A43F010031361B0
:1003000000BFBD465DF8047B704700BF00ED00E014
:10031000044BDA6822F00202DA605A689204FCD5D3
:10032000704700BF0048025880B582B000AF224B32
:10033000D3F8E030204A43F00073C2F8E0301E4B9F
:10034000D3F8E03003F000737B607B68012000F09D
:1003500063FE00F0EDFE01220221002000F06EFE9F
:10036000164B1B6803F0F003702B08D1144BD3F825
:100370000431134A43F00103C2F8043107E0104B83
:10038000D3F814310E4A43F00103C2F8143100F0DF
:10039000C1FA00F049F800F01BF803F035F8094AFB
:1003A0000021094803F080F80346084A136003F06F
:1003B00051F800BFFDE700BF0044025800ED00E027
:1003C00000640258945D1008B1041008CC000010BD
:1003D00080B500AF124B134A1A60114BFF225A60CE
:1003E0000F4B01229A600E4B0022DA600C4B012267
:1003F0001A610B4B00225A61094B00229A61084B8B
:100400000022DA61064B00221A62054800F09EFEC7
:100410000346002B01D000F06DF800BF80BD00BF87
:10042000800000100050005280B588B000AF07F186
:100430000C0300221A605A609A60DA601A611A4B43
:10044000D3F8E030184A43F02003C2F8E030164BEE
:10045000D3F8E03003F02003BB60BB68124BD3F845
:10046000E030114A43F00203C2F8E0300E4BD3F8FB
:10047000E03003F002037B607B68002201210B481F
:1004800000F096FD0123FB6001233B6100237B61AB
:100490000023BB6107F10C031946044800F0CEFBB2
:1004A00000BF2037BD4680BD0044025800040258FA
:1004B00080B582B000AF78600121044800F091FD62
:1004C000C82000F0A5FA00BFF6E700BF00040258FC
:1004D00080B582B000AF78607B681B68044A9342A5
:1004E00001D100F075FA00BF0837BD4680BD00BFDE
:1004F0000014004080B400AF72B600BF00BFFDE73B
:1005000080B582B000AF0C4BD3F8F4300A4A43F008
:100510000203C2F8F430084BD3F8F43003F00203BE
:100520007B607B6800220F216FF0010000F04CFB24
:1005300000BF0837BD4680BD0044025880B5BCB03E
:1005400000AF786007F1DC0300221A605A609A60FD
:10055000DA601A6107F11803C0220021184605F07D
:1005600011FB7B681B68444A934240F081804FF046
:1005700000724FF00003C7E9062300237B6607F1F2
:100580001803184601F0A0F80346002B01D0FFF72E
:10059000B1FF3A4BD3F8D430384A43F48043C2F821
:1005A000D430364BD3F8D43003F480437B617B697D
:1005B000324BD3F8E030314A43F02003C2F8E03048
:1005C0002E4BD3F8E03003F020033B613B692B4B0B
:1005D000D3F8E030294A43F00203C2F8E030274B59
:1005E000D3F8E03003F00203FB60FB684FF4407384
:1005F000C7F8DC300223C7F8E0300023C7F8E43046
:100600000023C7F8E8300A23C7F8EC3007F1DC0311
:1006100019461B4800F012FB4FF48063C7F8DC302A
:100620000223C7F8E0300023C7F8E4300023C7F8FE
:10063000E8300923C7F8EC3007F1DC03194610480D
:1006400000F0FCFA4FF48063C7F8DC300223C7F8EF
:10065000E0300023C7F8E4300023C7F8E83009236E
:10066000C7F8EC3007F1DC031946064800F0E6FA5B
:1006700000BFF037BD4680BD005000520044025814
:10068000001402580004025880B590B000AF7860A2
:100690007B680F2B27D800227968372000F094FA66
:1006A000372000F0ABFA294A7B681360284BD3F857
:1006B000E830274A43F02003C2F8E830244BD3F84F
:1006C000E83003F02003FB60FB6807F1100207F13C
:1006D00014031146184600F0B5FFBB6ABB63BB6B41
:1006E000002B06D101E001232BE000F095FFF86319
:1006F00004E000F091FF03465B00FB63FB6B154ACF
:10070000A2FB03239B0C013B7B63134B134A1A6030
:10071000114B40F2E732DA600F4A7B6B53600E4BAD
:1007200000221A610C4B00229A600B4802F03AFB3F
:100730000346002B04D1084802F096FB034600E074
:10074000012318464037BD4680BD00BF0800001099
:100750000044025883DE1B43D00000100014004008
:1007600080B400AF00BFFDE780B400AF00BFFDE77D
:1007700080B400AF00BFFDE780B400AF00BFFDE76D
:1007800080B400AF00BFFDE780B400AF00BFBD463E
:100790005DF8047B7047000080B500AF024802F0AE
:1007A000DBFB00BF80BD00BFD0000010DFF838D0F9
:1007B000FFF7AEFDFFF794FD0C480D490D4A0023ED
:1007C00002E0D458C4500433C4188C42F9D30A4A06
:1007D0000A4C002301E013600432A242FBD305F06F
:1007E00037FAFFF7A1FDFEE70080041000000010BB
:1007F00064000010C45D1008640000104C4C001030
:10080000FEE780B584B000AF78607B68002B05D12F
:1008100072B600BFFFF76EFE00BFFDE77B681B7A74
:10082000012B05D972B600BFFFF764FE00BFFDE7DC
:100830007B681B7A5A1CD1B27A6811721946EFF3A1
:1008400011824FF0500383F31188BFF36F8FBFF312
:100850004F8FFA60BB60FA687B6843F8212000BFC5
:100860001037BD4680BD80B584B000AF78607B682E
:10087000002B05D172B600BFFFF73CFE00BFFDE7BD
:100880007B681B7A013BDAB27B681A727B681B7A41
:10089000012B05D972B600BFFFF72CFE00BFFDE7A4
:1008A0007B681B7A1A467B6853F82230FB60FB6832
:1008B00083F3118800BF00BF1037BD4680BD80B5EF
:1008C00082B000AF78607B68002B05D172B600BFA4
:1008D000FFF710FE00BFFDE77B681846FFF791FFAA
:1008E00000BF0837BD4680BD80B582B000AF7860DC
:1008F0007B68002B05D172B600BFFFF7FBFD00BF80
:10090000FDE77B681846FFF7AEFF00BF0837BD461E
:1009100080BD000080B582B000AF284BD3F8D8303E
:10092000264A43F48043C2F8D830244BD3F8D83059
:1009300003F480433B603B68214B1B6823F47F2317
:1009400023F470631E4A43F4014313601C4B1B687D
:100950001B4A43F001031360032000F02AF900F062
:10096000AFFC0246154B9B691B0A03F00F031549A8
:10097000CB5C03F01F0322FA03F37B600F4B9B69F0
:1009800003F00F030F4AD35C03F01F037A6822FAC7
:1009900003F30D4A13600C4B1B680C4A13600F20C5
:1009A000FFF772FE0346002B01D0012302E0FFF7A0
:1009B000A7FD002318460837BD4680BD00440258F5
:1009C00000440240785D1008040000100000001090
:1009D00080B400AF064B1B781A46064B1B681344C5
:1009E000044A136000BFBD465DF8047B704700BF3A
:1009F0000C0000102801001080B400AF034B1B68EE
:100A00001846BD465DF8047B704700BF2801001002
:100A100080B584B000AF7860FFF7EEFFB8607B6808
:100A2000FB60FB68B3F1FF3F05D00A4B1B781A4609
:100A3000FB681344FB6000BFFFF7DEFF0246BB68A4
:100A4000D31AFA689A42F7D800BF00BF1037BD46E4
:100A500080BD00BF0C00001080B485B000AF78608E
:100A60007B6803F00703FB600C4BDB68BB60BA6874
:100A70004FF6FF031340BB60FB681A02BB681343C9
:100A800043F0BF6343F40033BB60044ABB68D360E8
:100A900000BF1437BD465DF8047B704700ED00E0F1
:100AA00080B400AF044BDB681B0A03F00703184651
:100AB000BD465DF8047B704700ED00E080B483B074
:100AC00000AF0346FB80B7F90630002B0BDBFB8839
:100AD00003F01F020749B7F906305B09012000FA4D
:100AE00002F241F8232000BF0C37BD465DF8047BBD
:100AF000704700BF00E100E080B483B000AF034660
:100B00003960FB80B7F90630002B0ADB3B68DAB2AC
:100B10000C49B7F906301201D2B20B4483F8002316
:100B20000AE03B68DAB20849FB8803F00F03043B94
:100B30001201D2B20B441A7600BF0C37BD465DF8E5
:100B4000047B704700E100E000ED00E080B489B074
:100B500000AFF860B9607A60FB6803F00703FB61DF
:100B6000FB69C3F10703042B28BF0423BB61FB69A6
:100B70000433062B02D9FB69033B00E000237B61B1
:100B80004FF0FF32BB6902FA03F3DA43BB681A4045
:100B90007B699A404FF0FF317B6901FA03F3D94337
:100BA0007B680B40134318462437BD465DF8047B31
:100BB000704780B582B000AF78607868FFF74CFF6F
:100BC00000BF0837BD4680BD80B586B000AF034684
:100BD000B9607A60FB81FFF763FF78617A68B96872
:100BE0007869FFF7B3FF0246B7F90E301146184691
:100BF000FFF782FF00BF1837BD4680BD80B582B0C9
:100C000000AF0346FB80B7F906301846FFF756FFE2
:100C100000BF0837BD4680BD80B400AF064B1B68DF
:100C200003F0F003702B01D1032300E001231846E9
:100C3000BD465DF8047B704700ED00E080B489B0EC
:100C400000AF786039600023FB618E4B7B619EE1D1
:100C50003B681A680121FB6901FA03F313403B6109
:100C60003B69002B00F090813B685B6803F0030355
:100C7000012B05D03B685B6803F00303022B30D1E6
:100C80007B689B68BB61FB695B00032202FA03F38C
:100C9000DB43BA691340BB613B68DA68FB695B0000
:100CA00002FA03F3BA691343BB617B68BA699A60BD
:100CB0007B685B68BB610122FB6902FA03F3DB43DB
:100CC000BA691340BB613B685B681B0903F0010212
:100CD000FB6902FA03F3BA691343BB617B68BA6923
:100CE0005A603B685B6803F00303032B09D13B6840
:100CF0005B6803F00303032B1BD13B689B68012B4C
:100D000017D07B68DB68BB61FB695B00032202FADA
:100D100003F3DB43BA691340BB613B689A68FB6924
:100D20005B0002FA03F3BA691343BB617B68BA69DB
:100D3000DA603B685B6803F00303022B23D1FB6995
:100D4000DA087B68083253F82230BB61FB6903F094
:100D500007039B000F2202FA03F3DB43BA69134037
:100D6000BB613B681A69FB6903F007039B0002FA49
:100D700003F3BA691343BB61FB69DA087B68083285
:100D8000B96943F822107B681B68BB61FB695B0093
:100D9000032202FA03F3DB43BA691340BB613B68E9
:100DA0005B6803F00302FB695B0002FA03F3BA69B4
:100DB0001343BB617B68BA691A603B685B6803F4E4
:100DC0004033002B00F0E0802F4BD3F8F4302E4A54
:100DD00043F00203C2F8F4302B4BD3F8F43003F0A5
:100DE0000203FB60FB68294AFB699B08023352F847
:100DF0002330BB61FB6903F003039B000F2202FA5F
:100E000003F3DB43BA691340BB617B68204A93421A
:100E100052D07B681F4A934231D07B681E4A93426E
:100E20002BD07B681D4A934225D07B681C4A934295
:100E30001FD07B681B4A934219D07B681A4A9342A1
:100E400013D07B68194A93420DD07B68184A9342AD
:100E500007D07B68174A934201D109232DE00A236A
:100E60002BE0082329E0072327E0062325E00523BC
:100E700023E0042321E003231FE002231DE00123DC
:100E80001BE000BFC0000058004402580004005896
:100E9000000002580004025800080258000C0258D2
:100EA000001002580014025800180258001C025882
:100EB00000200258002402580023FA6902F00302BD
:100EC00092009340BA691343BB613849FB699B08A0
:100ED0000233BA6941F823204FF0B0431B68BB616D
:100EE0003B69DB43BA691340BB613B685B6803F451
:100EF0008013002B03D0BA693B691343BB614FF0E9
:100F0000B042BB6913604FF0B0435B68BB613B69A3
:100F1000DB43BA691340BB613B685B6803F40013B1
:100F2000002B03D0BA693B691343BB614FF0B04259
:100F3000BB6953607B695B68BB613B69DB43BA6932
:100F40001340BB613B685B6803F40033002B03D0A4
:100F5000BA693B691343BB617B69BA695A607B69B3
:100F60001B68BB613B69DB43BA691340BB613B68EB
:100F70005B6803F48033002B03D0BA693B691343E9
:100F8000BB617B69BA691A60FB690133FB613B682D
:100F90001A68FB6922FA03F3002B7FF459AE00BFF5
:100FA00000BF2437BD465DF8047B7047000400583D
:100FB00080B483B000AF78600B467B8013467B70B3
:100FC0007B78002B03D07A887B689A6103E07B886A
:100FD0001A047B689A6100BF0C37BD465DF8047B3C
:100FE000704780B485B000AF78600B467B807B682B
:100FF0005B69FB607A88FB6813401A04FB68D9437D
:101000007B880B401A437B689A6100BF1437BD464A
:101010005DF8047B7047000080B483B000AF786057
:10102000054B1A6804497B6813430B6000BF0C37FB
:10103000BD465DF8047B70471065025880B584B0EA
:1010400000AFF8600B467A60FB72374B1B6823F0E9
:1010500001023549FB6813430B607B68002B23D1E9
:10106000FFF7DAFD0346032B58D12F4B1B692E4A9D
:1010700023F0010313612D4B1B692C4A43F0040339
:101080001361BFF34F8F00BFBFF36F8F00BFFB7AB9
:10109000012B01D130BF00E020BF244B1B69234A44
:1010A00023F0040313613CE07B68012B23D1FFF79D
:1010B000B3FD0346012B33D11B4B5B691A4A23F066
:1010C00002035361194B1B69184A43F0040313616F
:1010D000BFF34F8F00BFBFF36F8F00BFFB7A012BB1
:1010E00001D130BF00E020BF104B1B690F4A23F035
:1010F0000403136115E0FFF78FFD0346032B06D1B0
:10110000094B1B69084A23F00403136109E0064BED
:101110005B69054A23F00403536102E000BF00E06D
:1011200000BF1037BD4680BD0048025800ED00E00A
:1011300080B500AFFFF770FD0346032B01D120BF40
:1011400001E040BF20BF00BF80BD000080B586B079
:1011500002AF7860FFF750FCF8607B68002B01D18C
:10116000012361E07B6893F84130DBB2002B07D1AB
:101170007868FFF7E3F941F28831786800F05AF8AF
:101180007B681B681B6823F4F8517B689B68013BF4
:101190001A027B681B680A431A607B689B6C009389
:1011A000FB6800222021786800F052F80346FB72A9
:1011B000FB7A002B37D17B681B681B6823F07F43C9
:1011C00023F0D0037A68526811067A68D268114316
:1011D0007A68D26911437A68126A11437A68126890
:1011E0000B4313607B681B685A68114B13407A6885
:1011F000126911047A68526911437A68926911433D
:101200007A6812680B4353607B681B681A687B68B6
:101210001B6842F001021A607B6800225A647B68F6
:10122000012283F84120FB7A18461037BD4680BD65
:10123000FEF8E0FF80B483B000AF786039607B686F
:101240003A689A6400BF0C37BD465DF8047B70476E
:1012500080B584B000AFF860B9603B601346FB71A5
:101260001AE0BB69B3F1FF3F16D0FFF7C5FB02469A
:101270003B68D31ABA699A4202D3BB69002B0BD1DF
:10128000FB68042283F84120FB685B6C43F0010299
:10129000FB685A6401230EE0FB681B689A68BB6810
:1012A0001340002B14BF01230023DBB21A46FB7945
:1012B0009A42D6D1002318461037BD4680BD0000A3
:1012C00080B489B000AFB34B1B6903F03803182B0F
:1012D00000F2558101A252F823F000BF411310081B
:1012E0007F1510087F1510087F1510087F1510084E
:1012F0007F1510087F1510087F1510086713100858
:101300007F1510087F1510087F1510087F1510082D
:101310007F1510087F1510087F1510086D13100831
:101320007F1510087F1510087F1510087F1510080D
:101330007F1510087F1510087F151008731310080B
:10134000944B1B6803F02003002B09D0914B1B68C2
:10135000DB0803F00303904A22FA03F3BB6111E1B7
:101360008D4BBB610EE18D4BBB610BE18C4BBB61C7
:1013700008E1884B9B6A03F003037B61854B9B6A02
:101380001B0903F03F033B61824BDB6A03F001035F
:10139000FB60804B5B6BDB08C3F30C03FA6802FB5A
:1013A00003F307EE903AF8EE677AC7ED027A3B69ED
:1013B000002B00F0E1807B69022B00F083807B69C9
:1013C000022B00F2A1807B69002B03D07B69012BEB
:1013D00056D099E06F4B1B6803F02003002B2DD0F3
:1013E0006C4B1B68DB0803F003036B4A22FA03F320
:1013F0007B607B6807EE903AF8EE676A3B6907EE20
:10140000903AF8EE677A86EEA77A624B1B6BC3F3CD
:10141000080307EE903AF8EE676A97ED026ADFED8F
:10142000615AC6EE257A76EEA77AF7EE006A77EE75
:10143000A67A67EE277AC7ED077A87E03B6907EE61
:10144000903AF8EE677ADFED586A86EEA77A514B4C
:101450001B6BC3F3080307EE903AF8EE676A97ED4B
:10146000026ADFED505AC6EE257A76EEA77AF7EEDD
:10147000006A77EEA67A67EE277AC7ED077A65E00D
:101480003B6907EE903AF8EE677ADFED486A86EE40
:10149000A77A404B1B6BC3F3080307EE903AF8EEB4
:1014A000676A97ED026ADFED3F5AC6EE257A76EE5F
:1014B000A77AF7EE006A77EEA67A67EE277AC7ED8D
:1014C000077A43E03B6907EE903AF8EE677ADFED82
:1014D000386A86EEA77A2F4B1B6BC3F3080307EE1F
:1014E000903AF8EE676A97ED026ADFED2E5AC6EE83
:1014F000257A76EEA77AF7EE006A77EEA67A67EE9F
:10150000277AC7ED077A21E03B6907EE903AF8EEBB
:10151000677ADFED266A86EEA77A1E4B1B6BC3F354
:10152000080307EE903AF8EE676A97ED026ADFED7E
:101530001D5AC6EE257A76EEA77AF7EE006A77EEA8
:10154000A67A67EE277AC7ED077A00BF114B1B6BAF
:101550005B0A03F07F0301333B603B6807EE903A80
:10156000B8EE677AD7ED076AC6EE877AFCEEE77ABF
:1015700017EE903ABB6105E00023BB6102E0074B28
:10158000BB6100BFBB6918462437BD465DF8047BCC
:10159000704700BF004402580090D00300093D008E
:1015A00040787D01000000460024744C0024744AF9
:1015B00020BCBE4B80B582B000AFFFF781FE024673
:1015C000114B9B691B0A03F00F031049CB5C03F01E
:1015D0001F0322FA03F37B600B4B9B6903F00F039D
:1015E0000A4AD35C03F01F037A6822FA03F3084A1D
:1015F0001360074B1B68074A1360054B1B681846AE
:101600000837BD4680BD00BF00440258785D100811
:10161000040000100000001080B500AFFFF7CAFF03
:101620000246064BDB691B0903F007030449CB5C48
:1016300003F01F0322FA03F3184680BD004402584A
:10164000785D100880B483B000AF786039607B6843
:101650003F221A601A4B1B6903F007027B685A602D
:10166000174B9B6903F470627B689A60144B9B690B
:1016700003F00F027B68DA60114B9B6903F0700284
:101680007B681A610E4BDB6903F070027B685A615C
:101690000B4BDB6903F4E0627B689A61084B1B6AC1
:1016A00003F070027B68DA61064B1B6803F00F02DF
:1016B0003B681A6000BF0C37BD465DF8047B70477D
:1016C00000440258002000522DE9B04FCAB000AFCC
:1016D000C7F81401002387F82731002387F8263143
:1016E000D7F81431D3E9002302F00064002554EA4E
:1016F000050349D0D7F814319B6EB3F5401F2FD0A6
:10170000B3F5401F28D8B3F5001F1AD0B3F5001F5A
:1017100022D8002B03D0B3F5801F07D01CE0B84BB4
:10172000DB6AB74A43F40033D3621AE0D7F81431C6
:1017300008330221184601F0D1F9034687F8273112
:101740000FE0D7F8143128330221184601F078FA57
:10175000034687F8273104E0012387F8273100E0AA
:1017600000BF97F82731002B0AD1A54B1B6D23F43E
:101770004011D7F814319B6EA14A0B43136503E067
:1017800097F8273187F82631D7F81431D3E90023A9
:1017900002F480784FF0000958EA090347D0D7F8DF
:1017A00014319B6D042B2AD801A252F823F000BFFC
:1017B000C5171008D3171008E917100807181008E4
:1017C000071810088E4BDB6A8D4A43F40033D3624E
:1017D0001AE0D7F8143108330021184601F07EF9D9
:1017E000034687F827310FE0D7F81431283300215A
:1017F000184601F025FA034687F8273104E0012353
:1018000087F8273100E000BF97F82731002B0AD175
:101810007B4B1B6D23F00701D7F814319B6D784A81
:101820000B43136503E097F8273187F82631D7F883
:101830001431D3E9002302F4007A4FF0000B5AEA86
:101840000B034CD0D7F81431DB6DB3F5807F30D06B
:10185000B3F5807F29D8C02B2DD0C02B25D8802B65
:1018600018D0802B21D8002B02D0402B07D01CE0B1
:10187000634BDB6A624A43F40033D3621CE0D7F85F
:10188000143108330021184601F028F9034687F87F
:10189000273111E0D7F8143128330021184601F020
:1018A000CFF9034687F8273106E0012387F827316F
:1018B00002E000BF00E000BF97F82731002B0AD1FB
:1018C0004F4B1B6D23F4E071D7F81431DB6D4C4A9C
:1018D0000B43136503E097F8273187F82631D7F8D3
:1018E0001431D3E9002302F48063C7F808310023E0
:1018F000C7F80C31D7E942120B46134353D0D7F83F
:101900001431D3F8A830B3F5000F35D0B3F5000F7C
:101910002ED8B3F5C00F31D0B3F5C00F28D8B3F52A
:10192000800F1AD0B3F5800F22D8002B03D0B3F567
:10193000001F07D01CE0324BDB6A314A43F400330E
:10194000D3621CE0D7F8143108330021184601F0A7
:10195000C5F8034687F8273111E0D7F8143128334A
:101960000021184601F06CF9034687F8273106E09C
:10197000012387F8273102E000BF00E000BF97F89D
:101980002731002B0BD11E4B9B6D23F46001D7F840
:101990001431D3F8A8301A4A0B43936503E097F843
:1019A000273187F82631D7F81431D3E9002302F420
:1019B0000063C7F800310023C7F80431D7E94012AB
:1019C0000B46134356D0D7F81431D3F8AC30B3F1EB
:1019D000806F38D0B3F1806F31D8B3F1407F34D00D
:1019E000B3F1407F2BD8B3F1007F1DD0B3F1007F5E
:1019F00025D8002B06D0B3F1807F0AD01FE000BFAE
:101A000000440258A24BDB6AA14A43F40033D3627C
:101A10001CE0D7F8143108330021184601F05EF8B5
:101A2000034687F8273111E0D7F814312833002115
:101A3000184601F005F9034687F8273106E001232F
:101A400087F8273102E000BF00E000BF97F8273198
:101A5000002B0BD18E4B9B6D23F0E061D7F8143136
:101A6000D3F8AC308A4A0B43936503E097F82731EB
:101A700087F82631D7F81431D3E9002302F0007338
:101A8000C7F8F8300023C7F8FC30D7E93E120B4600
:101A900013433AD0D7F81431DB6C302B1FD0302BE6
:101AA00019D8202B0CD0202B15D8002B19D0102B97
:101AB00011D1774BDB6A764A43F40033D36211E0ED
:101AC000D7F8143108330221184601F007F803460D
:101AD00087F8273106E0012387F8273102E000BFAD
:101AE00000E000BF97F82731002B0AD1684BDB6C70
:101AF00023F03001D7F81431DB6C654A0B43D36413
:101B000003E097F8273187F82631D7F81431D3E965
:101B1000002302F48053C7F8F0300023C7F8F430F4
:101B2000D7E93C120B46134351D0D7F814311B6E42
:101B3000B3F5804F35D0B3F5804F2ED8B3F5405F65
:101B400031D0B3F5405F28D8B3F5005F1AD0B3F5B4
:101B5000005F22D8002B03D0B3F5805F07D01CE0D4
:101B60004B4BDB6A4A4A43F40033D3621CE0D7F89C
:101B7000143108330021184600F0B0FF034687F8FF
:101B8000273111E0D7F8143128330021184601F02D
:101B900057F8034687F8273106E0012387F82731F5
:101BA00002E000BF00E000BF97F82731002B0AD108
:101BB000374B1B6D23F4E041D7F814311B6E344AC8
:101BC0000B43136503E097F8273187F82631D7F8E0
:101BD0001431D3E9002302F40053C7F8E83000239E
:101BE000C7F8EC30D7E93A120B46134356D0D7F872
:101BF00014315B6EB3F5A02F33D0B3F5A02F2CD8E2
:101C0000B3F5802F2FD0B3F5802F26D8B3F5403F02
:101C10002BD0B3F5403F20D8B3F5003F12D0B3F539
:101C2000003F1AD8002B22D0B3F5803F15D1D7F84A
:101C3000143108330121184600F050FF034687F89D
:101C4000273115E0D7F8143128330121184600F068
:101C5000F7FF034687F827310AE0012387F8273189
:101C600006E000BF04E000BF02E000BF00E000BFEC
:101C700097F82731002B0DD1054B1B6D23F4E02184
:101C8000D7F814315B6E024A0B43136506E000BFC0
:101C90000044025897F8273187F82631D7F81431D5
:101CA000D3E9002302F48043C7F8E0300023C7F8EB
:101CB000E430D7E938120B46134355D0D7F8143126
:101CC000D3F8B030B3F1A04F33D0B3F1A04F2CD83C
:101CD000B3F1804F2FD0B3F1804F26D8B3F1405FDE
:101CE0002BD0B3F1405F20D8B3F1005F12D0B3F135
:101CF000005F1AD8002B22D0B3F1805F15D1D7F83E
:101D0000143108330121184600F0E8FE034687F835
:101D1000273115E0D7F8143128330121184600F097
:101D20008FFF034687F827310AE0012387F8273120
:101D300006E000BF04E000BF02E000BF00E000BF1B
:101D400097F82731002B0BD1A44B9B6D23F0E0417A
:101D5000D7F81431D3F8B030A04A0B43936503E0B1
:101D600097F8273187F82631D7F81431D3E90023C3
:101D700002F40043C7F8D8300023C7F8DC30D7E9B5
:101D800036120B46134337D0D7F814311B6FB3F11B
:101D9000005F0ED0B3F1005F16D8002B18D0B3F15E
:101DA000805F11D18D4BDB6A8C4A43F40033D362E0
:101DB0000FE0D7F8143108330121184600F08EFEE9
:101DC000034687F8273104E0012387F8273100E034
:101DD00000BF97F82731002B0AD1804B1B6D23F0F1
:101DE0004051D7F814311B6F7C4A0B43136503E055
:101DF00097F8273187F82631D7F81431D3E9002333
:101E000002F08073C7F8D0300023C7F8D430D7E988
:101E100034120B46134339D0D7F814319B6C032B83
:101E20001CD801A252F823F0651E1008391E1008B4
:101E3000471E1008651E1008684BDB6A674A43F4AA
:101E40000033D3620FE0D7F814310833022118466B
:101E500000F044FE034687F8273104E0012387F8A9
:101E6000273100E000BF97F82731002B0AD15B4BE8
:101E7000DB6C23F00301D7F814319B6C574A0B43FA
:101E8000D36403E097F8273187F82631D7F8143167
:101E9000D3E9002302F48003C7F8C8300023C7F851
:101EA000CC30D7E932120B46134300F09F804C4BE5
:101EB0001B684B4A43F480731360FEF79DFDC7F81F
:101EC00020010BE0FEF798FD0246D7F82031D31A27
:101ED000642B03D9032387F8273105E0404B1B68A7
:101EE00003F48073002BEDD097F82731002B79D1C4
:101EF0003A4B1A6FD7F81431D3F8B430534003F487
:101F00004073002B15D0354B1B6F23F44073C7F87B
:101F10001C31324B1B6F314A43F4803313672F4B14
:101F20001B6F2E4A23F4803313672C4AD7F81C31D9
:101F30001367D7F81431D3F8B430B3F5807F18D1D4
:101F4000FEF75AFDC7F820010DE0FEF755FD0246E9
:101F5000D7F82031D21A41F288339A4203D90323A9
:101F600087F8273105E01D4B1B6F03F00203002BA0
:101F7000EBD097F82731002B2BD1D7F81431D3F8B9
:101F8000B43003F44073B3F5407F10D1134B1B6999
:101F900023F47C51D7F81431D3F8B4301B0923F063
:101FA0007F4323F030030D4A0B43136105E00B4BD5
:101FB0001B690A4A23F47C531361084B196FD7F845
:101FC0001431D3F8B430C3F30B03044A0B43136743
:101FD0000CE097F8273187F8263107E000440258D3
:101FE0000048025897F8273187F82631D7F814317E
:101FF000D3E9002302F00103C7F8C0300023C7F87B
:10200000C430D7E930120B46134300F08980D7F86B
:102010001431DB6F282B6BD801A252F823F000BFDC
:10202000F9201008F1201008F1201008F120100804
:10203000F1201008F1201008F1201008F1201008FC
:10204000C5201008F1201008F1201008F120100818
:10205000F1201008F1201008F1201008F1201008DC
:10206000DB201008F1201008F1201008F1201008E2
:10207000F1201008F1201008F1201008F1201008BC
:10208000F9201008F1201008F1201008F1201008A4
:10209000F1201008F1201008F1201008F12010089C
:1020A000F9201008F1201008F1201008F120100884
:1020B000F1201008F1201008F1201008F12010087C
:1020C000F9201008D7F8143108330121184600F020
:1020D00005FD034687F827310FE0D7F81431283380
:1020E0000121184600F0ACFD034687F8273104E0D3
:1020F000012387F8273100E000BF97F82731002B34
:102100000AD1BF4B5B6D23F03801D7F81431DB6F78
:10211000BB4A0B43536503E097F8273187F8263114
:10212000D7F81431D3E9002302F00203C7F8B8301E
:102130000023C7F8BC30D7E92E120B46134341D019
:10214000D7F814319B6F052B24D801A252F823F045
:102150009D211008692110087F2110089D21100879
:102160009D2110089D211008D7F814310833012152
:10217000184600F0B3FC034687F827310FE0D7F884
:10218000143128330121184600F05AFD034687F820
:10219000273104E0012387F8273100E000BF97F8DA
:1021A0002731002B0AD1964B5B6D23F00701D7F83E
:1021B00014319B6F924A0B43536503E097F8273124
:1021C00087F82631D7F81431D3E9002302F004034D
:1021D000C7F8B0300023C7F8B430D7E92C120B464B
:1021E000134344D0D7F81431D3F89430052B25D8B5
:1021F00001A252F823F000BF452210081122100856
:1022000027221008452210084522100845221008F0
:10221000D7F8143108330121184600F05FFC03465B
:1022200087F827310FE0D7F81431283301211846F9
:1022300000F006FD034687F8273104E0012387F804
:10224000273100E000BF97F82731002B0BD16C4BF2
:102250009B6D23F00701D7F81431D3F89430684A06
:102260000B43936503E097F8273187F82631D7F8B9
:102270001431D3E9002302F02003C7F8A83000236B
:10228000C7F8AC30D7E92A120B46134355D0D7F81C
:102290001431D3F89030B3F1A04F33D0B3F1A04F45
:1022A0002CD8B3F1804F2FD0B3F1804F26D8B3F1A3
:1022B000405F2BD0B3F1405F20D8B3F1005F12D064
:1022C000B3F1005F1AD8002B22D0B3F1805F15D193
:1022D000D7F8143108330021184600F0FFFB0346FD
:1022E00087F8273115E0D7F8143128330221184632
:1022F00000F0A6FC034687F827310AE0012387F89F
:10230000273106E000BF04E000BF02E000BF00E0AC
:1023100000BF97F82731002B0BD1394B5B6D23F0B1
:10232000E041D7F81431D3F89030354A0B43536568
:1023300003E097F8273187F82631D7F81431D3E92D
:10234000002302F04003C7F8A0300023C7F8A430F0
:10235000D7E928120B46134358D0D7F81431D3F8D5
:102360009C30B3F5A05F33D0B3F5A05F2CD8B3F5A4
:10237000805F2FD0B3F5805F26D8B3F5406F2BD0A8
:10238000B3F5406F20D8B3F5006F12D0B3F5006FEE
:102390001AD8002B22D0B3F5806F15D1D7F814319D
:1023A00008330021184600F099FB034687F82731CF
:1023B00015E0D7F8143128330221184600F040FC0C
:1023C000034687F827310AE0012387F8273106E022
:1023D00000BF04E000BF02E000BF00E000BF97F8CC
:1023E0002731002B0ED1064B9B6D23F4E051D7F81B
:1023F0001431D3F89C30024A0B43936506E000BFCA
:102400000044025897F8273187F82631D7F814315D
:10241000D3E9002302F08003C7F898300023C7F8FF
:102420009C30D7E926120B46134355D0D7F8143108
:10243000D3F8A030B3F5204F33D0B3F5204F2CD8CC
:10244000B3F5004F2FD0B3F5004F26D8B3F5C04FEA
:102450002BD0B3F5C04F20D8B3F5804F12D0B3F5D1
:10246000804F1AD8002B22D0B3F5005F15D1D7F8D2
:10247000143108330021184600F030FB034687F87A
:10248000273115E0D7F8143128330221184600F01F
:10249000D7FB034687F827310AE0012387F8273165
:1024A00006E000BF04E000BF02E000BF00E000BFA4
:1024B00097F82731002B0BD1A14B9B6D23F4604182
:1024C000D7F81431D3F8A0309D4A0B43936503E04D
:1024D00097F8273187F82631D7F81431D3E900234C
:1024E00002F00803C7F890300023C7F89430D7E90A
:1024F00024120B4613431ED0D7F81431D3F884307E
:10250000B3F5805F0CD1D7F8143128330221184677
:1025100000F096FB0346002B02D0012387F82631FA
:10252000874B5B6D23F44051D7F81431D3F88430D6
:10253000834A0B435365D7F81431D3E9002302F0E3
:102540001003C7F888300023C7F88C30D7E922126F
:102550000B4613431ED0D7F81431D3F89830B3F597
:10256000807F0CD1D7F8143128330221184600F0AF
:1025700067FB0346002B02D0012387F82631704BFE
:102580009B6D23F44071D7F81431D3F898306C4A1E
:102590000B439365D7F81431D3E9002302F40023E9
:1025A000C7F880300023C7F88430D7E920120B46E3
:1025B00013433ED0D7F81431D3F8A430B3F5003F1D
:1025C00022D0B3F5003F1BD8002B03D0B3F5803FDA
:1025D0000BD015E0D7F8143108330021184600F06D
:1025E0007DFA034687F827310FE0D7F814312833F6
:1025F0000221184600F024FB034687F8273104E047
:10260000012387F8273100E000BF97F82731002B1E
:102610000BD14B4B9B6D23F44031D7F81431D3F8D9
:10262000A430474A0B43936503E097F8273187F8B6
:102630002631D7F81431D3E9002302F48023BB6795
:102640000023FB67D7E91E120B4613433BD0D7F894
:102650001431D3F88830B3F5401F1FD0B3F5401FB5
:1026600018D8B3F5801F03D0B3F5001F07D011E0D1
:10267000334BDB6A324A43F40033D3620FE0D7F8BE
:10268000143128330121184600F0DAFA034687F89E
:10269000273104E0012387F8273100E000BF97F8D5
:1026A0002731002B0BD1264B5B6D23F44011D7F85B
:1026B0001431D3F88830224A0B43536503E097F86E
:1026C000273187F82631D7F81431D3E9002302F4F3
:1026D00080333B6700237B67D7E91C120B4613430B
:1026E00034D0D7F814311B6D002B03D0B3F5803FE5
:1026F00007D011E0124BDB6A114A43F40033D36276
:102700000EE0D7F8143108330221184600F0E6F93C
:10271000034687F8273103E0012387F8273100BFFC
:1027200097F82731002B0DD1054BDB6C23F480315A
:10273000D7F814311B6D024A0B43D36406E000BF87
:102740000044025897F8273187F82631D7F814311A
:10275000D3E9002302F00053BB660023FB66D7E9F0
:102760001A120B4613430CD0D7F814312833022128
:10277000184600F065FA0346002B02D0012387F8C3
:102780002631D7F81431D3E9002302F400333B6635
:1027900000237B66D7E918120B46134338D0D7F8CD
:1027A0001431D3F88030B3F5407F18D0B3F5407FB3
:1027B00011D8B3F5007F14D0B3F5007F0BD8002BF0
:1027C00011D0B3F5807F06D1C34BDB6AC24A43F414
:1027D0000033D36208E0012387F8273104E000BF0B
:1027E00002E000BF00E000BF97F82731002B0BD1BB
:1027F000B94B5B6D23F44071D7F81431D3F88030B6
:10280000B54A0B43536503E097F8273187F8263123
:10281000D7F81431D3E9002302F48013BB650023F9
:10282000FB65D7E916120B46134309D0AA4B1B6D63
:1028300023F00041D7F814315B6FA74A0B431365AF
:10284000D7F81431D3E9002302F080533B6500230D
:102850007B65D7E914120B4613430AD09E4B1B69C4
:1028600023F48041D7F81431D3F8B8309A4A0B4397
:102870001361D7F81431D3E9002302F40013BB64C9
:102880000023FB64D7E912120B46134309D0924B85
:102890001B6D23F08071D7F81431DB6E8E4A0B4329
:1028A0001365D7F81431D3E9002302F080433B6469
:1028B00000237B64D7E910120B4613430ED0864BDE
:1028C0001B69854A23F400431361834B1969D7F8C8
:1028D0001431D3F8BC30804A0B431361D7F814315C
:1028E000D3E9002302F00043BB630023FB63D7E975
:1028F0000E120B46134309D0774BDB6C23F040518B
:10290000D7F814315B6D744A0B43D364D7F8143194
:10291000D3E9002302F400033B6300237B63D7E980
:102920000C120B4613430AD06B4B5B6D23F4400132
:10293000D7F81431D3F88C30674A0B435365D7F876
:102940001431D3E900230021B96203F00103FB62D3
:10295000D7E90A120B46134311D0D7F814310833C4
:102960000021184600F0BAF8034687F8273197F897
:102970002731002B03D097F8273187F82631D7F875
:102980001431D3E900230021396203F002037B6292
:10299000D7E908120B46134311D0D7F81431083386
:1029A0000121184600F09AF8034687F8273197F876
:1029B0002731002B03D097F8273187F82631D7F835
:1029C0001431D3E900230021B96103F00403FB6152
:1029D000D7E906120B46134311D0D7F81431083348
:1029E0000221184600F07AF8034687F8273197F855
:1029F0002731002B03D097F8273187F82631D7F8F5
:102A00001431D3E900230021396103F008037B610D
:102A1000D7E904120B46134311D0D7F814312833E9
:102A20000021184600F00CF9034687F8273197F883
:102A30002731002B03D097F8273187F82631D7F8B4
:102A40001431D3E900230021B96003F01003FB60C7
:102A5000D7E902120B46134311D0D7F814312833AB
:102A60000121184600F0ECF8034687F8273197F863
:102A70002731002B03D097F8273187F82631D7F874
:102A80001431D3E900230021396003F020037B6077
:102A9000D7E900120B46134311D0D7F8143128336D
:102AA0000221184600F0CCF8034687F8273197F842
:102AB0002731002B03D097F8273187F8263197F874
:102AC0002631002B01D1002300E00123184607F531
:102AD0009477BD46BDE8B08F0044025880B584B0FD
:102AE00000AF786039600023FB73544B9B6A03F09E
:102AF0000303032B01D101239BE0504B1B684F4A7A
:102B000023F080631360FDF777FFB86008E0FDF7FE
:102B100073FF0246BB68D31A022B01D9032388E056
:102B2000464B1B6803F00063002BF0D1434B9B6ABC
:102B300023F47C327B681B681B03404913438B6280
:102B40007B685B68013BC3F308027B689B68013BC1
:102B50005B029BB21A437B68DB68013B1B0403F4F6
:102B6000FE031A437B681B69013B1B0603F0FE430F
:102B7000324913438B63314BDB6A23F0C0027B681D
:102B80005B692E491343CB622C4BDB6A23F0200296
:102B90007B689B6929491343CB62284BDB6A274A30
:102BA00023F01003D362254BDB6B23F47F4323F028
:102BB000F8037A68D269D20020491343CB631F4BD4
:102BC000DB6A1E4A43F01003D3623B68002B06D138
:102BD0001A4BDB6A194A43F40023D3620FE03B68C7
:102BE000012B06D1154BDB6A144A43F48013D362E0
:102BF00005E0124BDB6A114A43F40013D3620F4B1A
:102C00001B680E4A43F080631360FDF7F5FEB86061
:102C100008E0FDF7F1FE0246BB68D31A022B01D98A
:102C2000032306E0054B1B6803F00063002BF0D084
:102C3000FB7B18461037BD4680BD00BF00440258DC
:102C400080B584B000AF786039600023FB73544BCB
:102C50009B6A03F00303032B01D101239BE0504B3C
:102C60001B684F4A23F080531360FDF7C5FEB86020
:102C700008E0FDF7C1FE0246BB68D31A022B01D95A
:102C8000032388E0464B1B6803F00053002BF0D170
:102C9000434B9B6A23F07C727B681B681B05404991
:102CA00013438B627B685B68013BC3F308027B685C
:102CB0009B68013B5B029BB21A437B68DB68013B6C
:102CC0001B0403F4FE031A437B681B69013B1B06CC
:102CD00003F0FE43324913430B64314BDB6A23F4A8
:102CE00040627B685B692E491343CB622C4BDB6AE5
:102CF00023F400727B689B6929491343CB62284BFC
:102D0000DB6A274A23F48073D362254B5B6C23F480
:102D10007F4323F0F8037A68D269D2002049134335
:102D20004B641F4BDB6A1E4A43F48073D3623B68DB
:102D3000002B06D11A4BDB6A194A43F48003D36295
:102D40000FE03B68012B06D1154BDB6A144A43F4B4
:102D50000003D36205E0124BDB6A114A43F0807333
:102D6000D3620F4B1B680E4A43F080531360FDF78C
:102D700043FEB86008E0FDF73FFE0246BB68D31A89
:102D8000022B01D9032306E0054B1B6803F0005317
:102D9000002BF0D0FB7B18461037BD4680BD00BF2E
:102DA0000044025880B582B000AF78607B68002B89
:102DB00001D1012349E07B6893F83D30DBB2002B61
:102DC00006D17B68002283F83C20786800F041F847
:102DD0007B68022283F83D207B681A687B68043395
:102DE0001946104600F0E8F97B68012283F8482074
:102DF0007B68012283F83E207B68012283F83F2014
:102E00007B68012283F840207B68012283F84120FF
:102E10007B68012283F842207B68012283F84320EB
:102E20007B68012283F844207B68012283F84520D7
:102E30007B68012283F846207B68012283F84720C3
:102E40007B68012283F83D20002318460837BD46E1
:102E500080BD80B483B000AF786000BF0C37BD4642
:102E60005DF8047B7047000080B485B000AF7860E7
:102E70007B6893F83D30DBB2012B01D0012354E095
:102E80007B68022283F83D207B681B68DA687B68D8
:102E90001B6842F00102DA607B681B68264A934295
:102EA00022D07B681B68B3F1804F1DD07B681B6804
:102EB000224A934218D07B681B68214A934213D060
:102EC0007B681B681F4A93420ED07B681B681E4AB2
:102ED000934209D07B681B681C4A934204D07B68EC
:102EE0001B681B4A934215D17B681B689A68194B73
:102EF0001340FB60FB68062B15D0FB68B3F5803FE1
:102F000011D07B681B681A687B681B6842F001025D
:102F10001A6008E07B681B681A687B681B6842F0CF
:102F200001021A6000E000BF002318461437BD46B6
:102F30005DF8047B704700BF0000014000040040C2
:102F400000080040000C0040000401400018004050
:102F5000004001400700010080B584B000AF7860F8
:102F60007B681B68DB68FB607B681B681B69BB6058
:102F7000BB6803F00203002B20D0FB6803F00203C0
:102F8000002B1BD07B681B686FF002021A617B6804
:102F900001221A777B681B689B6903F00303002BEF
:102FA00003D0786800F0E9F805E0786800F0DBF815
:102FB000786800F0ECF87B6800221A77BB6803F0B1
:102FC0000403002B20D0FB6803F00403002B1BD06C
:102FD0007B681B686FF004021A617B6802221A7713
:102FE0007B681B689B6903F44073002B03D07868EF
:102FF00000F0C3F805E0786800F0B5F8786800F0F4
:10300000C6F87B6800221A77BB6803F00803002B20
:1030100020D0FB6803F00803002B1BD07B681B68E3
:103020006FF008021A617B6804221A777B681B68BC
:10303000DB6903F00303002B03D0786800F09DF8F0
:1030400005E0786800F08FF8786800F0A0F87B68F9
:1030500000221A77BB6803F01003002B20D0FB6816
:1030600003F01003002B1BD07B681B686FF010026D
:103070001A617B6808221A777B681B68DB6903F496
:103080004073002B03D0786800F077F805E078688B
:1030900000F069F8786800F07AF87B6800221A7707
:1030A000BB6803F00103002B0CD0FB6803F00103A5
:1030B000002B07D07B681B686FF001021A617868EB
:1030C000FDF706FABB6803F08003002B04D1BB6850
:1030D00003F40053002B0CD0FB6803F08003002B9B
:1030E00007D07B681B686FF402521A61786800F0A1
:1030F0000DF9BB6803F48073002B0CD0FB6803F060
:103100008003002B07D07B681B686FF480721A6104
:10311000786800F005F9BB6803F04003002B0CD081
:10312000FB6803F04003002B07D07B681B686FF03F
:1031300040021A61786800F034F8BB6803F020039D
:10314000002B0CD0FB6803F02003002B07D07B681A
:103150001B686FF020021A61786800F0CDF800BF9C
:103160001037BD4680BD80B483B000AF786000BF2B
:103170000C37BD465DF8047B704780B483B000AF68
:10318000786000BF0C37BD465DF8047B704780B4A3
:1031900083B000AF786000BF0C37BD465DF8047B9C
:1031A000704780B483B000AF786000BF0C37BD4675
:1031B0005DF8047B7047000080B485B000AF786094
:1031C00039607B681B68FB607B68434A934213D07D
:1031D0007B68B3F1804F0FD07B68404A93420BD09D
:1031E0007B683F4A934207D07B683E4A934203D0B4
:1031F0007B683D4A934208D1FB6823F07003FB6073
:103200003B685B68FA681343FB607B68324A934211
:103210001FD07B68B3F1804F1BD07B682F4A93424D
:1032200017D07B682E4A934213D07B682D4A934275
:103230000FD07B682C4A93420BD07B682B4A934279
:1032400007D07B682A4A934203D07B68294A93427D
:1032500008D1FB6823F44073FB603B68DB68FA68C5
:103260001343FB60FB6823F080023B685B691343F8
:10327000FB603B689A687B68DA623B681A687B6827
:103280009A627B68144A93420FD07B68164A934235
:103290000BD07B68154A934207D07B68144A93424F
:1032A00003D07B68134A934203D13B681A697B6859
:1032B0001A637B681B6843F004027B681A607B68B2
:1032C00001225A617B68FA681A6000BF1437BD4654
:1032D0005DF8047B704700BF00000140000400401F
:1032E00000080040000C0040000401400040014084
:1032F000004401400048014080B483B000AF7860D2
:1033000000BF0C37BD465DF8047B704780B483B0C6
:1033100000AF786000BF0C37BD465DF8047B704796
:1033200080B483B000AF786000BF0C37BD465DF855
:10333000047B704780B483B000AF03463960FB80E4
:10334000B7F90630002B0ADB3B68DAB20C49B7F953
:1033500006301201D2B20B4483F800230AE03B6826
:10336000DAB20849FB8803F00F03043B1201D2B222
:103370000B441A7600BF0C37BD465DF8047B7047DE
:1033800000E100E000ED00E080B500AF054B1B68F8
:1033900002F098F80346012B01D000F095FD00BF24
:1033A00080BD00BF10E000E080B500AF00216FF0ED
:1033B0000400FFF7BFFF00BF80BD80B586B000AF3F
:1033C00000237B61EFF30583FB60FB68002B02D0D9
:1033D00001237B6113E002F075F838613B69012B32
:1033E0000DD0EFF31083BB60BB68002B05D1EFF36A
:1033F00011837B607B68002B01D001237B617B699B
:1034000018461837BD4680BD80B582B000AFFFF7C3
:10341000D4FF0346002B03D06FF005037B6012E05E
:1034200002F050F838603B68012B09D1084B1B684B
:10343000002B05D1064B01221A6000237B6002E0BD
:103440004FF0FF337B607B6818460837BD4680BD70
:103450002C01001080B582B000AFFFF7AEFF03462D
:10346000002B03D06FF005037B6016E002F02AF812
:1034700038603B68012B0DD10A4B1B68012B09D129
:10348000FFF792FF074B02221A6001F067FA002350
:103490007B6002E04FF0FF337B607B6818460837A3
:1034A000BD4680BD2C01001080B58EB004AFF86021
:1034B000B9607A6000237B61FFF77FFF0346002B32
:1034C0007ED1FB68002B7BD080233B621823FB61FD
:1034D00000237B624FF0FF33BB617B68002B45D03C
:1034E0007B681B68002B02D07B681B687B627B6853
:1034F0009B69002B02D07B689B69FB61FB69002BF9
:1035000008D0FB69382B05D87B685B6803F00103A2
:10351000002B01D0002354E07B685B69002B03D0B3
:103520007B685B699B083B627B689B68002B0ED0C5
:103530007B68DB68A72B0AD97B681B69002B06D048
:103540007B685B69002B02D00123BB6110E07B68C4
:103550009B68002B0CD17B68DB68002B08D17B6853
:103560001B69002B04D10023BB6101E00023BB6178
:10357000BB69012B10D17B681B697A689268029243
:103580000193FB690093BB683A6A796AF86800F0B6
:10359000F7FF03467B6113E0BB69002B10D13B6A48
:1035A0009AB207F114030193FB690093BB68796A2F
:1035B000F86801F04AF80346012B01D000237B6133
:1035C0007B6918462837BD4680BD000080B485B0B1
:1035D00000AFF860B9607A60FB68074A1A60BB68A0
:1035E000064A1A607B6880221A6000BF1437BD4605
:1035F0005DF8047B704700BF30010010D801001057
:1036000080B485B000AFF860B9607A60FB68074AA3
:103610001A60BB68064A1A607B684FF480721A60B1
:1036200000BF1437BD465DF8047B7047D803001017
:103630008004001080B58AB000AF78600023FB6181
:1036400001F000FA5C4B1B68002B01D100F018F967
:103650007B68002B22D00823DB437A689A421BD870
:1036600008227B6813447B607B6803F00703002B10
:1036700014D07B6803F00703C3F10803BB61BB6987
:10368000DB437A689A4204D87A68BB6913447B604A
:1036900004E000237B6001E000237B607B68002B5B
:1036A00071DB7B68002B6ED0444B1B687A689A42B2
:1036B00069D8434B3B62424B1B687B6204E07B6AE8
:1036C0003B627B6A1B687B627B6A5B687A689A42B2
:1036D00003D97B6A1B68002BF1D1374B1B687A6AD0
:1036E0009A4250D03B6A1B6808221344FB617B6AF4
:1036F0001A683B6A1A607B6A5A687B68D21A082388
:103700005B009A4220D97A6A7B6813447B617B69AB
:1037100003F00703002B0BD04FF0500383F3118805
:10372000BFF36F8FBFF34F8F3B6100BF00BFFDE75B
:103730007B6A5A687B68D21A7B695A607B6A7A68AE
:103740005A60786900F0F8F81C4B1A687B6A5B686D
:10375000D31A1A4A1360194B1A681A4B1B689A42FB
:1037600003D2164B1B68174A13607B6A5B6843F0F1
:1037700000427B6A5A607B6A00221A60124B1B6807
:103780000133114A136001F06BF9FB6903F0070381
:10379000002B0BD04FF0500383F31188BFF36F8FD2
:1037A000BFF34F8FFB6000BF00BFFDE7FB6918460A
:1037B0002837BD4680BD00BF884400108C440010EF
:1037C00080440010904400109444001080B586B0EE
:1037D00000AF78607B687B617B68002B47D0082353
:1037E0005B427A6913447B617B693B613B695B683F
:1037F000002B0BDB4FF0500383F31188BFF36F8F67
:10380000BFF34F8FFB6000BF00BFFDE73B691B6844
:10381000002B0BD04FF0500383F31188BFF36F8F51
:10382000BFF34F8FBB6000BF00BFFDE73B695B6824
:10383000002B1CDA3B691B68002B18D13B695B68C5
:1038400023F000423B695A6001F0FCF83B695A687A
:10385000094B1B681344084A1360386900F06CF880
:10386000064B1B680133054A136001F0F9F800BFED
:103870001837BD4680BD00BF8C440010984400102E
:1038800080B485B000AF4FF47053BB60254BFB6034
:10389000FB6803F00703002B0CD0FB680733FB60C9
:1038A000FB6823F00703FB60BA68FB68D31A1D4A64
:1038B0001344BB60FB687B601B4A7B6813601A4B38
:1038C00000225A607A68BB681344FB600822FB68D8
:1038D0009B1AFB60FB6823F00703FB60FB68134A3D
:1038E0001360124B1B6800225A60104B1B680022A9
:1038F0001A607B683B603B68FA68D21A3B685A6082
:103900000A4B1A683B681A603B685B68084A136098
:103910003B685B68074A136000BF1437BD465DF81B
:10392000047B704780080010804400108844001019
:10393000904400108C44001080B485B000AF7860D3
:10394000284BFB6002E0FB681B68FB60FB681B68A0
:103950007A689A42F7D8FB68BB60FB685B68BA6814
:1039600013447A689A4208D1FB685A687B685B689E
:103970001A44FB685A60FB687B607B68BB607B68AD
:103980005B68BA681A44FB681B689A4218D1FB68E6
:103990001A68154B1B689A420DD07B685A68FB6801
:1039A0001B685B681A447B685A60FB681B681A686E
:1039B0007B681A6008E00C4B1A687B681A6003E0A9
:1039C000FB681A687B681A60FA687B689A4202D0C2
:1039D000FB687A681A6000BF1437BD465DF8047B47
:1039E000704700BF804400108844001080B483B04A
:1039F00000AF78607B6803F108027B685A607B68DF
:103A00004FF0FF329A607B6803F108027B68DA604E
:103A10007B6803F108027B681A617B6800221A60E8
:103A200000BF0C37BD465DF8047B704780B483B09F
:103A300000AF78607B6800221A6100BF0C37BD467A
:103A40005DF8047B704780B485B000AF7860396062
:103A50003B681B68BB60BB68B3F1FF3F03D17B6869
:103A60001B69FB600CE07B680833FB6002E0FB68CD
:103A70005B68FB60FB685B681B68BA689A42F6D2B9
:103A8000FB685A683B685A603B685B683A689A60B2
:103A90003B68FA689A60FB683A685A603B687A68E3
:103AA0001A617B681B685A1C7B681A6000BF143758
:103AB000BD465DF8047B704780B485B000AF786088
:103AC0007B681B69FB607B685B687A6892689A60B8
:103AD0007B689B687A6852685A60FB685B687A68A2
:103AE0009A4203D17B689A68FB685A607B6800221F
:103AF0001A61FB681B685A1EFB681A60FB681B682A
:103B000018461437BD465DF8047B704780B485B015
:103B100000AFF860B9607A60FB68043BFB60FB684B
:103B20004FF080721A60FB68043BFB60BB6823F0B7
:103B30000102FB681A60FB68043BFB600C4AFB68EF
:103B40001A60FB68143BFB607A68FB681A60FB68CC
:103B5000043BFB60FB686FF002021A60FB68203BCD
:103B6000FB60FB6818461437BD465DF8047B704760
:103B7000753B100880B485B000AF00237B60134B09
:103B80001B68B3F1FF3F0BD04FF0500383F3118854
:103B9000BFF36F8FBFF34F8FFB6000BF00BFFDE728
:103BA0004FF0500383F31188BFF36F8FBFF34F8F34
:103BB000BB6000BF00BF7B68002BFCD000BF00BF14
:103BC0001437BD465DF8047B704700BF100000103D
:103BD000074B19680868B0E8F04F80F30988BFF315
:103BE0006F8F4FF0000080F311887047AFF30080B3
:103BF000E444001000BF00BF08480068006880F37C
:103C000008884FF0000080F3148862B661B6BFF3F5
:103C10004F8FBFF36F8F00DF00BF000008ED00E0A3
:103C200000BF00BF80B588B000AF544B1B68544A3A
:103C300093420BD14FF0500383F31188BFF36F8F82
:103C4000BFF34F8F7B6100BF00BFFDE74B4B1B688D
:103C50004C4A93420BD14FF0500383F31188BFF3CA
:103C60006F8FBFF34F8FBB6100BF00BFFDE7002325
:103C70007B60454BFB61FB691B78DBB2FB72FB6928
:103C8000FF221A70FB691B78DBB2FB70FB78DBB29A
:103C900003F05003DAB23D4B1A703C4B1B78002BFB
:103CA0000BD14FF0500383F31188BFF36F8FBFF335
:103CB0004F8F3B6100BF00BFFDE7FB78DBB2DB430A
:103CC00003F05003002B13D04FF0500383F31188FF
:103CD000BFF36F8FBFF34F8FFB6000BF00BFFDE7E7
:103CE0007B6801337B60FB78DBB25B00DBB2FB708F
:103CF000FB78DBB203F08003802BF1D07B68082BCC
:103D000003D1234B00221A6004E07B68C3F1070350
:103D10001F4A13601E4B1B681B021D4A13601C4B7D
:103D20001B6803F4E0631A4A1360FB7ADAB2FB699A
:103D30001A70184B1B68174A43F47F031360154B26
:103D40001B68144A43F07F43136000F0DFF8124B06
:103D500000221A6000F0FEF8104B1B680F4A43F077
:103D600040431360FFF748FF01F0A0F8FFF702FFA0
:103D7000002318462037BD4680BD00BF00ED00E09F
:103D800071C20F4170C20F4100E400E09C4400107A
:103D9000A044001020ED00E01000001034EF00E01F
:103DA00080B483B000AF4FF0500383F31188BFF3AA
:103DB0006F8FBFF34F8F7B6000BF104B1B680133C9
:103DC0000E4A13600D4B1B68012B10D10C4B1B6866
:103DD000DBB2002B0BD04FF0500383F31188BFF3FD
:103DE0006F8FBFF34F8F3B6000BF00BFFDE700BF89
:103DF0000C37BD465DF8047B704700BF1000001013
:103E000004ED00E080B483B000AF124B1B68002BC0
:103E10000BD14FF0500383F31188BFF36F8FBFF3C3
:103E20004F8F7B6000BF00BFFDE70A4B1B68013B63
:103E3000084A1360074B1B68002B05D100233B6029
:103E40003B6883F3118800BF00BF0C37BD465DF8A7
:103E5000047B70471000001000000000000000000C
:103E6000EFF30980BFF36F8F154B1A681EF0100F28
:103E700008BF20ED108A20E9F04F106009B44FF020
:103E8000500080F31188BFF34F8FBFF36F8F01F0A5
:103E90000DF84FF0000080F3118809BC196808681C
:103EA000B0E8F04F1EF0100F08BFB0EC108A80F39E
:103EB0000988BFF36F8F7047AFF30080AFF30080C6
:103EC000E444001000BF00BF80B582B000AF4FF0E7
:103ED000500383F31188BFF36F8FBFF34F8F7B6065
:103EE00000BF00F0CBFE0346002B03D0064B4FF083
:103EF00080521A6000233B603B6883F3118800BF47
:103F000000BF0837BD4680BD04ED00E080B400AFBF
:103F10000B4B00221A600B4B00221A600A4B1B68E5
:103F20000A4AA2FB03239B09094A013B1360044B85
:103F300007221A6000BFBD465DF8047B704700BFD2
:103F400010E000E018E000E004000010D34D621023
:103F500014E000E0DFF80C00016841F4700101603A
:103F60007047000088ED00E000BF00BF80B586B05C
:103F700000AF7860396001237B617B683B613B69FE
:103F8000002B0BD14FF0500383F31188BFF36F8FD9
:103F9000BFF34F8FFB6000BF00BFFDE73B69002B05
:103FA0005DD03B69DB6B002B59D03B691A6C3B69D8
:103FB000DB6B0021A3FB0223002B00D001210B4669
:103FC000002B4CD1FFF7ECFE3B691A683B69DB6BB9
:103FD0003969096C01FB03F31A443B699A603B6938
:103FE00000229A633B691A683B695A603B691A6808
:103FF0003B69DB6B013B3969096C01FB03F31A4434
:104000003B69DA603B69FF2283F844203B69FF2269
:1040100083F845203B68002B14D13B691B69002BBA
:104020001AD03B691033184601F010F80346002BF4
:1040300012D0164B4FF080521A60BFF34F8FBFF370
:104040006F8F09E03B6910331846FFF7CFFC3B69DF
:1040500024331846FFF7CAFCFFF7D4FE01E0002323
:104060007B617B69002B0BD14FF0500383F31188E8
:10407000BFF36F8FBFF34F8FBB6000BF00BFFDE783
:104080007B6918461837BD4680BD00BF04ED00E0CF
:1040900080B58CB002AFF860B9607A603B600023F5
:1040A0007B623B68002B0BD14FF0500383F31188E8
:1040B000BFF36F8FBFF34F8F3B6200BF00BFFDE7C1
:1040C000FB68002B31D03B68002B2ED07B68002B87
:1040D00002D0BB68002B28D07B68002B02D1BB68C4
:1040E000002B22D150237B617B69502B0BD04FF0EA
:1040F000500383F31188BFF36F8FBFF34F8FFB61C2
:1041000000BF00BFFDE77B693B687B627B6A0122E1
:1041100083F8462097F830207B6A009313467A682C
:10412000B968F86800F015F80EE07B6A002B0BD137
:104130004FF0500383F31188BFF36F8FBFF34F8F9E
:10414000BB6100BF00BFFDE77B6A18462837BD464C
:1041500080BD80B584B000AFF860B9607A60FB7054
:10416000BB68002B03D1BB69BA691A6002E0BB6966
:104170007A681A60BB69FA68DA63BB69BA681A645C
:104180000121B869FFF7F2FEBB69FA7883F84C2089
:1041900000BF1037BD4680BD80B58CB000AFF86061
:1041A000B9607A600023FB62FB68BB62BB6A002BCC
:1041B0000BD14FF0500383F31188BFF36F8FBFF320
:1041C0004F8F3B6200BF00BFFDE7BB68002B03D1F0
:1041D000BB6A1B6C002B01D1012300E00023002BE4
:1041E0000BD14FF0500383F31188BFF36F8FBFF3F0
:1041F0004F8FFB6100BF00BFFDE701F063F903468D
:10420000002B02D17B68002B01D1012300E00023A9
:10421000002B0BD14FF0500383F31188BFF36F8F46
:10422000BFF34F8FBB6100BF00BFFDE7FFF7B8FDD5
:10423000BB6A9B6B7B627B6A002B1FD0B968B86A34
:1042400000F08CF87B6A5A1EBB6A9A63BB6A1B69D2
:10425000002B0FD0BB6A1033184600F0F7FE034660
:10426000002B07D03C4B4FF080521A60BFF34F8FAA
:10427000BFF36F8FFFF7C6FD012369E07B68002B5A
:1042800003D1FFF7BFFD002362E0FB6A002B06D1DC
:1042900007F11003184600F0B1FF0123FB62FFF79E
:1042A000B1FD00F0CFFBFFF77BFDBB6A93F8443014
:1042B0005BB2B3F1FF3F03D1BB6A002283F8442015
:1042C000BB6A93F845305BB2B3F1FF3F03D1BB6AE1
:1042D000002283F84520FFF795FD3A1D07F11003F2
:1042E0001146184600F0A0FF0346002B23D1B86A00
:1042F00000F0ACF80346002B17D0BB6A24337A6871
:104300001146184600F036FEB86A00F04DF800F08D
:10431000A7FB0346002B89D10F4B4FF080521A6048
:10432000BFF34F8FBFF36F8F80E7B86A00F03CF8A0
:1043300000F096FB7AE7B86A00F036F800F090FBE0
:10434000B86A00F083F80346002B3FF46FAF0023F8
:1043500018463037BD4680BD04ED00E080B582B020
:1043600000AF786039607B681B6C002B18D07B68CD
:10437000DA687B681B6C1A447B68DA607B68DA68F1
:104380007B689B689A4203D37B681A687B68DA6013
:104390007B68D9687B681B6C1A46386801F07CFC26
:1043A00000BF0837BD4680BD80B584B000AF7860DF
:1043B000FFF7F6FC7B6893F84530FB7311E07B68F0
:1043C0005B6A002B12D07B682433184600F03EFE57
:1043D0000346002B01D000F08FFFFB7B013BDBB2DB
:1043E000FB7397F90F30002BE9DC00E000BF7B681E
:1043F000FF2283F84520FFF705FDFFF7D1FC7B681E
:1044000093F84430BB7311E07B681B69002B12D01A
:104410007B681033184600F019FE0346002B01D0CC
:1044200000F06AFFBB7B013BDBB2BB7397F90E3038
:10443000002BE9DC00E000BF7B68FF2283F844200A
:10444000FFF7E0FC00BF1037BD4680BD80B584B0EB
:1044500000AF7860FFF7A4FC7B689B6B002B02D158
:104460000123FB6001E00023FB60FFF7CBFCFB684E
:1044700018461037BD4680BD80B487B000AF786065
:10448000396000233B617B68002B0BD14FF0500358
:1044900083F31188BFF36F8FBFF34F8FFB6000BFB3
:1044A00000BFFDE73B68002B24D000237B611EE0AA
:1044B000184A7B69DB0013445B687A689A4205D12D
:1044C0007B69DB00134A13443B6113E03B69002B1B
:1044D0000AD1104A7B6952F83330002B04D17B6932
:1044E000DB000C4A13443B617B6901337B617B69D0
:1044F000072BDDD93B69002B05D03B693A681A6070
:104500003B697A685A6000BF1C37BD465DF8047B82
:10451000704700BFA444001080B586B000AFF860BB
:10452000B9607A60FB687B61FFF73AFC7B6993F8BE
:1045300044305BB2B3F1FF3F03D17B69002283F8C3
:1045400044207B6993F845305BB2B3F1FF3F03D160
:104550007B69002283F84520FFF754FC7B699B6B45
:10456000002B06D17B6924337A68B968184600F0BD
:1045700027FD7869FFF718FF00BF1837BD4680BDDB
:1045800080B58EB004AFF860B9607A603B607B6B39
:10459000002B0BD14FF0500383F31188BFF36F8FC3
:1045A000BFF34F8F3B6200BF00BFFDE7BB6B002B2B
:1045B0000BD14FF0500383F31188BFF36F8FBFF31C
:1045C0004F8FFB6100BF00BFFDE7A8233B613B6944
:1045D000A82B0BD04FF0500383F31188BFF36F8FDC
:1045E000BFF34F8FBB6100BF00BFFDE73B69BB6BF3
:1045F000002B23D07B6B002B20D0BB6B7B62A822CF
:104600000021786A01F0BEFA7B6A7A6B1A637B6AD2
:10461000022283F8A520002303937B6A029307F10B
:10462000140301933B6B00933B687A68B968F868A0
:1046300000F056F8786A00F0F9F801E000237B6199
:104640007B6918462837BD4680BD80B58CB004AF65
:10465000F860B9603B601346FB80FB889B001846FE
:10466000FEF7E8FF78617B69002B13D0A820FEF7E6
:10467000E1FFF861FB69002B08D0A8220021F8694E
:1046800001F080FAFB697A691A6305E07869FFF73F
:104690009DF801E00023FB61FB69002B17D0FB694B
:1046A000002283F8A520FA8800230393FB69029374
:1046B000FB6A0193BB6A00933B68B968F86800F035
:1046C0000FF8F86900F0B2F80123BB6102E04FF087
:1046D000FF33BB61BB6918462037BD4680BD000073
:1046E00080B588B000AFF860B9607A603B603B6B22
:1046F000186B7B689B001A46A52101F043FA3B6BBF
:104700001A6B7B6803F18043013B9B001344BB6140
:10471000BB6923F00703BB61BB6903F00703002BF0
:104720000BD04FF0500383F31188BFF36F8FBFF3AB
:104730004F8F7B6100BF00BFFDE7BB68002B1ED021
:104740000023FB6112E0BA68FB69134419783A6BE5
:10475000FB69134434330A461A70BA68FB69134480
:104760001B78002B06D0FB690133FB61FB690F2B23
:10477000E9D900E000BF3B6B002283F84320BB6A0D
:10478000372B0BD94FF0500383F31188BFF36F8F92
:10479000BFF34F8F3B6100BF00BFFDE7BB6A372B04
:1047A00001D93723BB623B6BBA6ADA623B6BBA6AE8
:1047B000DA643B6B04331846FFF738F93B6B183368
:1047C0001846FFF733F93B6B3A6B1A61BB6AC3F1CA
:1047D00038023B6B9A613B6B3A6B5A623B6B5433CA
:1047E0004C220021184601F0CDF93B6B0C4A9A652A
:1047F0003B6B0C4ADA653B6B0B4A1A663A68F96800
:10480000B869FFF783F902463B6B1A60FB6A002B1D
:1048100002D0FB6A3A6B1A6000BF2037BD4680BDEC
:10482000144B00107C4B0010E44B001080B584B09A
:1048300000AF7860FFF7B4FA414B1B680133404A80
:104840001360404B1B68002B09D13E4A7B68136004
:104850003B4B1B68012B10D100F072FD0DE03A4B71
:104860001B68002B09D1374B1B68DA6A7B68DB6A4F
:104870009A4202D8334A7B681360344B1B68013379
:10488000324A1360314B1A687B685A647B68DA6A73
:104890002F4B1B689A4203D97B68DB6A2C4A136052
:1048A0007B68DA6A2B4913469B0013449B000B4438
:1048B00004331B68FB607B68FA689A60FB689A683F
:1048C0007B68DA60FB689B687A6804325A607B68B0
:1048D0001A1DFB689A607B68DA6A13469B001344D2
:1048E0009B001C4A1A447B685A617B68DA6A194942
:1048F00013469B0013449B000B441B68591C15482E
:1049000013469B0013449B0003441960FFF77AFA97
:104910000D4B1B68002B0ED00A4B1B68DA6A7B68B4
:10492000DB6A9A4207D20C4B4FF080521A60BFF3F9
:104930004F8FBFF36F8F00BF1037BD4680BD00BFE4
:10494000B8490010E4440010C4490010D4490010D4
:10495000C0490010E844001004ED00E080B58AB0C2
:1049600004AF0023BB6000237B603A46391D07F18A
:1049700008031846FEF72AFE39687B68BA68029277
:1049800001930023009300230A4625492548FFF799
:10499000F7FD0346244A1360234B1B68002B02D00B
:1049A00001237B6101E000237B617B69012B02D144
:1049B00000F014FE78617B69012B1BD14FF050038E
:1049C00083F31188BFF36F8FBFF34F8F3B6100BF3D
:1049D000164B1B685433164A1360164B4FF0FF32C8
:1049E0001A60154B01221A60144B00221A60FFF75F
:1049F00019F90FE07B69B3F1FF3F0BD14FF0500382
:104A000083F31188BFF36F8FBFF34F8FFB6000BF3D
:104A100000BFFDE70A4B1B6800BF1837BD4680BDCD
:104A2000605D100811531008DC490010E4440010C8
:104A300014000010D8490010C4490010BC490010EF
:104A4000B85D100880B400AF044B1B680133034A03
:104A5000136000BFBD465DF8047B7047E04900105D
:104A600080B588B000AF0023FB610023BB61724BAF
:104A70001B68002B0BD14FF0500383F31188BFF359
:104A80006F8FBFF34F8F7B6000BF00BFFDE7FFF765
:104A900087F9694B1B68013B674A1360664B1B68CB
:104AA000002B40F0C180654B1B68002B00F0BC80E0
:104AB0008BE0634BDB68DB68FB61FB699B6A3B61F6
:104AC000FB69DB69FA69126A9A60FB691B6AFA6919
:104AD000D2695A603B695A68FB6918339A4203D11C
:104AE000FB691A6A3B695A60FB6900229A623B695A
:104AF0001B685A1E3B691A60FB695B69FB60FB69B6
:104B00009B68FA69D2689A60FB69DB68FA69926807
:104B10005A60FB685A68FB6904339A4203D1FB6907
:104B2000DA68FB685A60FB6900225A61FB681B68FF
:104B30005A1EFB681A60FB69DA6A424B1B689A428C
:104B400003D9FB69DB6A3F4A1360FB69DA6A3E49B5
:104B500013469B0013449B000B4404331B68BB604B
:104B6000FB69BA689A60BB689A68FB69DA60BB68DF
:104B70009B68FA6904325A60FB691A1DBB689A6027
:104B8000FB69DA6A13469B0013449B002E4A1A44C1
:104B9000FB695A61FB69DA6A2B4913469B0013448F
:104BA0009B000B441B68591C274813469B00134469
:104BB0009B0003441960FB69DA6A244B1B68DB6ABB
:104BC0009A4202D9224B01221A601D4B1B68002B0E
:104BD0007FF46FAFFB69002B01D000F057FC1D4B39
:104BE0001B687B617B69002B10D000F047F80346FF
:104BF000002B02D0164B01221A607B69013B7B61BE
:104C00007B69002BF1D1134B00221A60104B1B68FB
:104C1000002B09D00123BB610F4B4FF080521A606B
:104C2000BFF34F8FBFF36F8FFFF7ECF8BB691846E8
:104C30002037BD4680BD00BFE0490010B8490010D4
:104C400078490010C0490010E8440010E444001006
:104C5000CC490010C849001004ED00E080B483B0D6
:104C600000AF054B1B687B607B6818460C37BD4660
:104C70005DF8047B704700BFBC49001080B58AB066
:104C800000AF00237B627E4B1B68002B40F0EE8060
:104C90007C4B1B6801333B627A4A3B6A13603B6A78
:104CA000002B21D1784B1B681B68002B0BD04FF0D9
:104CB000500383F31188BFF36F8FBFF34F8F7B6077
:104CC00000BF00BFFDE7704B1B68FB616F4B1B68AB
:104CD0006D4A13606D4AFB6913606D4B1B680133AD
:104CE0006B4A136000F0D2FB6A4B1B683A6A9A4227
:104CF000C0F0A780644B1B681B68002B04D1654B78
:104D00004FF0FF321A609CE05F4B1B68DB68DB688A
:104D1000BB61BB695B687B613A6A7B699A4203D27B
:104D20005C4A7B6913608CE0BB695B693B61BB6972
:104D30009B68BA69D2689A60BB69DB68BA69926895
:104D40005A603B695A68BB6904339A4203D1BB6914
:104D5000DA683B695A60BB6900225A613B691B688B
:104D60005A1E3B691A60BB699B6A002B1ED0BB6947
:104D70009B6AFB60BB69DB69BA69126A9A60BB69AE
:104D80001B6ABA69D2695A60FB685A68BB691833F2
:104D90009A4203D1BB691A6AFB685A60BB69002258
:104DA0009A62FB681B685A1EFB681A60BB69DA6A64
:104DB000394B1B689A4203D9BB69DB6A364A1360D8
:104DC000BB69DA6A354913469B0013449B000B44C8
:104DD00004331B68BB60BB69BA689A60BB689A6899
:104DE000BB69DA60BB689B68BA6904325A60BB6908
:104DF0001A1DBB689A60BB69DA6A13469B001344AC
:104E00009B00264A1A44BB695A61BB69DA6A234986
:104E100013469B0013449B000B441B68591C1F48FE
:104E200013469B0013449B0003441960BB69DA6A74
:104E30001B4B1B68DB6A9A427FF65CAF01237B62E7
:104E400058E7174B1B68DA6A144913469B00134452
:104E50009B000B441B68012B01D901237B62114B82
:104E60001B68002B07D001237B6204E00E4B1B68FC
:104E700001330D4A13607B6A18462837BD4680BD52
:104E8000E0490010BC49001070490010744900103E
:104E9000D0490010D8490010C0490010E844001063
:104EA000E4440010CC490010C849001080B485B01B
:104EB00000AF2A4B1B68002B03D0294B01221A603C
:104EC00046E0274B00221A60264B1B68FB6011E06E
:104ED000FB68002B0BD14FF0500383F31188BFF315
:104EE0006F8FBFF34F8F7B6000BF00BFFDE7FB6894
:104EF000013BFB601C49FA6813469B0013449B006E
:104F00000B441B68002BE3D0FA6813469B00134444
:104F10009B00154A1344BB60BB685B685A68BB685A
:104F20005A60BB685A68BB6808339A4203D1BB68B1
:104F3000DA68BB685A60BB685B68DB680B4A136061
:104F4000084AFB681360094B1B685433084A136016
:104F500000BF1437BD465DF8047B7047E049001080
:104F6000CC490010C0490010E8440010E44400108F
:104F70001400001080B584B000AF786039607B68A1
:104F8000002B0BD14FF0500383F31188BFF36F8FC9
:104F9000BFF34F8FFB6000BF00BFFDE7074B1B68EF
:104FA000183319467868FEF74EFD0121386800F085
:104FB000A7FA00BF1037BD4680BD00BFE444001013
:104FC00080B586B000AFF860B9607A60FB68002BEE
:104FD0000BD14FF0500383F31188BFF36F8FBFF3F2
:104FE0004F8F3B6100BF00BFFDE7FB685B687B61E3
:104FF000154B1B687A69DA61134B1B687A699268F2
:105000001A62114B1A687B699B6818325A600E4B02
:105010001B6803F118027B699A600B4B1B68FA68E6
:105020009A62FB681B685A1CFB681A607B68002B3D
:1050300002D04FF0FF33BB607968B86800F060FAC7
:1050400000BF1837BD4680BDE444001080B48BB06B
:1050500000AF78607B68DB68DB683B623B6A002BF3
:105060000BD14FF0500383F31188BFF36F8FBFF361
:105070004F8FFB6000BF00BFFDE73B6A9B6AFB618F
:105080003B6ADB693A6A126A9A603B6A1B6A3A6A4F
:10509000D2695A60FB695A683B6A18339A4203D155
:1050A0003B6A1A6AFB695A603B6A00229A62FB6992
:1050B0001B685A1EFB691A604A4B1B68002B5FD1A4
:1050C0003B6A5B697B613B6A9B683A6AD2689A601B
:1050D0003B6ADB683A6A92685A607B695A683B6A45
:1050E00004339A4203D13B6ADA687B695A603B6AAF
:1050F00000225A617B691B685A1E7B691A603B6AF1
:10510000DA6A394B1B689A4203D93B6ADB6A364A32
:1051100013603B6ADA6A354913469B0013449B00CF
:105120000B4404331B683B613B6A3A699A603B69F4
:105130009A683B6ADA603B699B683A6A04325A6053
:105140003B6A1A1D3B699A603B6ADA6A13469B0008
:1051500013449B00254A1A443B6A5A613B6ADA6A47
:10516000224913469B0013449B000B441B68591CA7
:105170001E4813469B0013449B00034419601BE028
:105180001B4B5B68BB613B6ABA69DA61BB699A68B1
:105190003B6A1A62BB699B683A6A18325A603B6A7A
:1051A00003F11802BB699A603B6A114A9A62104B7C
:1051B0001B6801330E4A13603B6ADA6A0D4B1B68A9
:1051C000DB6A9A4205D901237B620B4B01221A60EC
:1051D00001E000237B627B6A18462C37BD465DF8F0
:1051E000047B7047E0490010C0490010E8440010FB
:1051F00078490010E4440010CC49001080B483B01A
:1052000000AF7860064B1A687B681A60054B1A6815
:105210007B685A6000BF0C37BD465DF8047B704761
:10522000D0490010BC49001080B588B000AF78604C
:1052300039607B68002B0BD14FF0500383F311884A
:10524000BFF36F8FBFF34F8F3B6100BF00BFFDE720
:105250003B68002B0BD14FF0500383F31188BFF351
:105260006F8FBFF34F8FFB6000BF00BFFDE7FEF7FE
:1052700097FD1F4B1B68BB617B685B68BA69D31ADB
:105280007B613B681B68B3F1FF3F02D10023FB61E8
:1052900026E07B681A68174B1B689A420AD07B6825
:1052A0005B68BA699A4205D30123FB613B6800221F
:1052B0001A6015E03B681B687A699A420BD23B681A
:1052C0001A687B69D21A3B681A607868FFF796FF04
:1052D0000023FB6104E03B6800221A600123FB61AC
:1052E000FEF790FDFB6918462037BD4680BD00BF24
:1052F000BC490010D049001080B400AF034B01221C
:105300001A6000BFBD465DF8047B7047CC490010B1
:1053100080B582B000AF786000F052F8064B1B6891
:10532000012BF9D9054B4FF080521A60BFF34F8F14
:10533000BFF36F8FF0E700BFE844001004ED00E01A
:1053400080B582B000AF00237B600CE07A68134622
:105350009B0013449B00124A13441846FEF746FB79
:105360007B6801337B607B68372BEFD90D48FEF7F4
:105370003DFB0D48FEF73AFB0C48FEF737FB0C48A7
:10538000FEF734FB0B48FEF731FB0B4B054A1A6066
:105390000A4B054A1A6000BF0837BD4680BD00BFF2
:1053A000E8440010484900105C490010784900109A
:1053B0008C490010A4490010704900107449001075
:1053C00080B582B000AF19E0FEF7EAFC104BDB6855
:1053D000DB687B607B6804331846FEF76DFB0D4B82
:1053E0001B68013B0B4A13600B4B1B68013B0A4ACD
:1053F0001360FEF707FD786800F010F8064B1B6895
:10540000002BE1D100BF00BF0837BD4680BD00BF03
:105410008C490010B8490010A049001080B584B034
:1054200000AF7860184B1B685433184600F0B2FB8D
:105430007B6893F8A530002B08D17B681B6B18465E
:10544000FEF7C4F97868FEF7C1F919E07B6893F8B4
:10545000A530012B03D17868FEF7B8F910E07B681E
:1054600093F8A530022B0BD04FF0500383F3118833
:10547000BFF36F8FBFF34F8FFB6000BF00BFFDE72F
:1054800000BF1037BD4680BDE444001080B400AFBB
:105490000A4B1B681B68002B04D1094B4FF0FF32ED
:1054A0001A6005E0054B1B68DB681B68044A136043
:1054B00000BFBD465DF8047B704700BF7049001017
:1054C000D849001080B483B000AF0B4B1B68002B91
:1054D00002D101237B6008E0084B1B68002B02D13E
:1054E00002237B6001E000237B607B6818460C3759
:1054F000BD465DF8047B7047C4490010E0490010C8
:1055000080B586B000AF786039602E4B1B687B6138
:105510002D4B1B6804331846FEF7CEFA7B68B3F1B7
:10552000FF3F24D13B68002B21D0284B5B683B61B7
:10553000254B1B683A699A60234B1B683A6992684D
:10554000DA60214B1A683B699B6804325A601E4B33
:105550001B681A1D3B699A601B4B1B681B4A5A61EA
:105560001A4B1B680133194A136000BF26E07A69A1
:105570007B681344FB60144B1B68FA685A60FA6836
:105580007B699A4209D2124B1A680F4B1B6804338D
:1055900019461046FEF757FA10E00E4B1A680A4BF0
:1055A0001B68043319461046FEF74DFA0A4B1B6878
:1055B000FA689A4202D2084AFB68136000BF1837A3
:1055C000BD4680BDBC490010E4440010A449001051
:1055D0007449001070490010D849001080B58AB095
:1055E00004AF00237B6100F081FA1D4B1B68002B88
:1055F00021D00023FB600023BB603A1D07F10801A6
:1056000007F10C031846FDF7FBFF7968BB68FA68E1
:10561000029201930223009300230A461149124883
:10562000FEF7AEFF0346114A1360104B1B68002BB8
:1056300001D001237B617B69002B0BD14FF050031C
:1056400083F31188BFF36F8FBFF34F8F3B6100BFB0
:1056500000BFFDE77B6918461837BD4680BD00BF17
:10566000144A0010685D100815571008184A0010F9
:1056700080B584B000AFF860B9607A6008E0FB687C
:105680009B69BA681344BB60FB681B6AF86898475B
:10569000FB689A69BB68D118BB687A68F86800F043
:1056A000DFF80346002BEAD100BF00BF1037BD462C
:1056B00080BD000080B584B000AF78603960144BC5
:1056C0001B68DB68DB68FB60FB6804331846FEF789
:1056D000F3F9FB6893F8283003F00403002B05D09E
:1056E0003A687968F868FFF7C3FF08E0FB6893F849
:1056F000283023F00103DAB2FB6883F82820FB6826
:105700001B6AF868984700BF1037BD4680BD00BFD0
:105710000C4A001080B584B000AF786007F1080330
:10572000184600F059F8F860BB681946F86800F0B0
:1057300005F800F0D7F800BFF0E7000080B584B0AE
:1057400000AF78603960FFF77DF907F1080318466C
:1057500000F066F8F860BB68002B30D13B68002B86
:105760000AD17A68FB689A4206D8FFF779F9F96896
:105770007868FFF79FFF24E03B68002B08D0134BAD
:105780001B681B68002B01D1012300E000233B6054
:105790000F4B18687A68FB68D31A3A681946FEF707
:1057A000BBFEFFF75DF90346002B0AD1094B4FF012
:1057B00080521A60BFF34F8FBFF36F8F01E0FFF786
:1057C0004FF900BF1037BD4680BD00BF104A001022
:1057D000144A001004ED00E080B485B000AF78609A
:1057E0000E4B1B681B68002B01D1012200E0002238
:1057F0007B681A607B681B68002B05D1074B1B6810
:10580000DB681B68FB6001E00023FB60FB68184657
:105810001437BD465DF8047B704700BF0C4A00108A
:1058200080B584B000AF7860FFF718FAF8600B4BD2
:105830001B68FA689A4205D200F032F97B680122AF
:105840001A6002E07B6800221A60044AFB68136059
:10585000FB6818461037BD4680BD00BF1C4A0010CB
:1058600080B586B000AFF860B9607A603B60002315
:105870007B61FB68BA685A60FB68FA681A61BA68AB
:105880007B689A4212D87A683B68D21AFB689B6997
:105890009A4202D301237B611BE0104B1A68FB681C
:1058A000043319461046FEF7CEF812E07A683B68DA
:1058B0009A4206D2BA683B689A4202D301237B61BE
:1058C00007E0074B1A68FB68043319461046FEF7D9
:1058D000BAF87B6918461837BD4680BD104A0010DB
:1058E0000C4A001080B58AB000AFC7E07B68002B7F
:1058F00019DA3B1D04337B627B6A002B0BD14FF01E
:10590000500383F31188BFF36F8FBFF34F8FBB61D9
:1059100000BF00BFFDE77B6A1B687A6A50687A6A3D
:105920009268114698477B68002BC0F2A780FB68FD
:105930003B623B6A5B69002B04D03B6A0433184628
:10594000FEF7BAF83B461846FFF76AFFF8617B6836
:10595000013B082B00F28F8001A252F823F000BF18
:105960008559100885591008ED591008015A10087A
:105970004D5A10088559100885591008ED5910081E
:10598000015A10083B6A93F8283043F00103DAB259
:105990003B6A83F82820BA683B6A9B69D118BB68C8
:1059A000FA69386AFFF75CFF0346002B65D03B6A53
:1059B00093F8283003F00403002B09D0BA683B6A3F
:1059C0009B691344FA691946386AFFF751FE08E0EB
:1059D0003B6A93F8283023F00103DAB23B6A83F87C
:1059E00028203B6A1B6A386A984746E03B6A93F86E
:1059F000283023F00103DAB23B6A83F828203DE027
:105A00003B6A93F8283043F00103DAB23B6A83F82B
:105A10002820BA683B6A9A613B6A9B69002B0BD1CC
:105A20004FF0500383F31188BFF36F8FBFF34F8F95
:105A30007B6100BF00BFFDE73B6A9A69FB69D11833
:105A4000FB69FA69386AFFF70BFF17E03B6A93F8C6
:105A5000283003F00203002B03D1386AFDF7B6FEAD
:105A60000CE03B6A93F8283023F00103DAB23B6A7A
:105A700083F8282002E000BF00E000BF074B1B684E
:105A8000391D00221846FEF787FB0346002B7FF4E2
:105A90002DAF00BF00BF2837BD4680BD144A00109F
:105AA00080B582B000AF09E00E4B1B68DB681B6855
:105AB0003B604FF0FF313868FFF7FCFD094B1B6876
:105AC0001B68002BF0D1074B1B687B60064B1B68E3
:105AD000044A1360044A7B68136000BF0837BD4660
