:020000040800F2
:100000000000082471120008251200082D120008B3
:10001000351200083D1200084512000800000000DB
:10002000000000000000000000000000016E000859
:100030004D1200080000000091700008B56500082E
:10004000C5120008C5120008C5120008C512000834
:10005000C5120008C5120008C5120008C512000824
:10006000C5120008C5120008C5120008C512000814
:10007000C5120008C5120008C5120008C512000804
:10008000C5120008C5120008C5120008C5120008F4
:10009000C5120008C5120008C5120008C5120008E4
:1000A000C5120008C5120008C5120008C5120008D4
:1000B000C5120008C5120008C5120008C5120008C4
:1000C000C5120008C5120008C5120008C5120008B4
:1000D000C5120008C5120008C5120008C5120008A4
:1000E000C5120008C512000800000000C512000873
:1000F000C5120008C5120008C5120008C512000884
:10010000C5120008C5120008C5120008C512000873
:10011000C5120008C51200085D120008C5120008CB
:10012000C5120008C5120008C5120008C512000853
:10013000C5120008C5120008C5120008C512000843
:10014000C5120008C51200080000000000000000F1
:10015000C5120008C5120008C5120008C512000823
:10016000C5120008C5120008C5120008C512000813
:10017000C5120008C5120008C5120008C512000803
:10018000C5120008C5120008C5120008C5120008F3
:10019000C5120008C5120008C5120008C5120008E3
:1001A000C5120008C5120008C5120008C5120008D3
:1001B000C5120008C5120008C5120008C5120008C3
:1001C000C5120008C5120008C5120008C5120008B3
:1001D000C5120008C5120008C5120008C5120008A3
:1001E000C5120008C5120008C5120008C512000893
:1001F000C5120008C5120008C5120008C512000883
:10020000C5120008C5120008C5120008C512000872
:10021000C5120008C5120008C5120008C512000862
:10022000C5120008C5120008C51200080000000031
:10023000C5120008C5120008C5120008C512000842
:10024000C5120008C5120008C5120008C512000832
:10025000C5120008C5120008C5120008C512000822
:10026000C5120008C5120008C5120008C512000812
:10027000C5120008C5120008C5120008C512000802
:10028000C5120008C5120008C512000800000000D1
:08029000C5120008C5120008A8
:1002A00010B5054C237833B9044B13B10448AFF3B0
:1002B00000800123237010BD6400002400000000B2
:1002C000788F000808B5034B1BB103490348AFF30F
:1002D000008008BD0000000068000024788F00083E
:1002E00053B94AB9002908BF00281CBF4FF0FF319D
:1002F0004FF0FF3000F088B9ADF1080C6DE904CE85
:1003000000F006F8DDF804E0DDE9022304B07047F0
:100310002DE9F047089D0F4604468C46002B48D136
:100320008A42164661D9B2FA82F34BB1C3F1200278
:1003300001FA03FC20FA02F29E4042EA0C0C9C40B7
:100340004FEA164EB7B2BCFBFEF1220C0EFB11CCED
:1003500042EA0C4201FB07F0904209D9B21801F1C0
:10036000FF3C80F0EE80904240F2EB800239324454
:10037000121AA4B2B2FBFEF00EFB102244EA0244B1
:1003800000FB07F7A74209D9341900F1FF3280F0CA
:10039000DA80A74240F2D7803444023840EA014074
:1003A000E41B00211DB1DC400023C5E90043BDE88A
:1003B000F0878B4206D90DB1C5E90001002108463E
:1003C000BDE8F087B3FA83F1002948D1BB4202D3DC
:1003D000824200F20781841A67EB030201209446EF
:1003E000002DE4D0C5E9004CE1E7002A00F092803E
:1003F000B2FA82F3002B40F0A8808A1A4FEA164E18
:100400001FFA86FC0121200CB2FBFEF70EFB17221F
:1004100040EA02420CFB07F0904207D9B21807F1FC
:10042000FF3802D2904200F2E2804746121AA4B28C
:10043000B2FBFEF00EFB102244EA02440CFB00FC6F
:10044000A44507D9341900F1FF3202D2A44500F2C5
:10045000CB801046A4EB0C0440EA0740A2E7C1F1B0
:1004600020068B4022FA06FC4CEA030C07FA01F442
:1004700020FA06F3F7404FEA1C49234300FA01F83B
:100480001FFA8CFEB7FBF9F01C0C09FB107744EA4D
:10049000074400FB0EF7A74202FA01F20AD91CEB4F
:1004A000040400F1FF3A80F09B80A74240F298805C
:1004B00002386444E41B9FB2B4FBF9F309FB134414
:1004C00047EA044403FB0EFEA64509D91CEB0404CD
:1004D00003F1FF3780F08280A6457FD9023B644458
:1004E00043EA0040A4EB0E04A0FB02E7BC427346C3
:1004F000B94663D360D05DB1B8EB030264EB090485
:1005000004FA06F622FA01F31E43CC40C5E9006462
:1005100000214CE76208480842EAC1710B0C43EA2B
:1005200000438AB242EA0342B3FBF6F1E407B44661
:100530003746B6461F23B0FBF6F0D21B41EA004116
:1005400061E7614614E7104628E7C3F1200120FA6D
:1005500001F29E4027FA01F19F403A434FEA164EBE
:100560001FFA86FCB1FBFEF70EFB1710110C41EAD7
:10057000004107FB0CF8884504FA03F43AD97118D6
:1005800007F1FF3001D288451FD8A1EB0801B1FB6C
:10059000FEF808FB0CF70EFB181192B242EA01427A
:1005A000BA422FD2B21808F1FF31C6D2BA42C4D231
:1005B000A8F102013244C0E7F0459CD2BEEB020331
:1005C00067EB0C070138B94695E7A6EB08084144EC
:1005D000B81EB1FBFEF808FB0CF7DCE73B467FE7F3
:1005E000504667E70846FBE63444023832E7023FEC
:1005F00032441BE7A1EB08013846B1FBFEF808FBCB
:100600000CF7C8E7414698E7704700BF80B400AFD9
:10061000494BD3F88830484A43F47003C2F8883015
:10062000454B1B69444A43F010031361434B1B685D
:1006300003F00F03062B07D8404B1B6823F00F0372
:100640003E4A43F0070313603D4B1B683C4A43F0AE
:10065000010313603A4B00221A61394B1A6838497A
:10066000384B13400B60354B1B6803F00803002B1D
:1006700007D0324B1B6823F00F03304A43F00703C7
:1006800013602F4B00229A612D4B0022DA612C4B14
:1006900000221A622A4B2C4A9A62294B2B4ADA62B0
:1006A000274B2B4A1A63264B00225A63244B284AB5
:1006B0009A63234B0022DA63214B254A1A64204BAC
:1006C00000225A641E4B1B681D4A23F480231360CA
:1006D0001B4B00221A661F4B5B6A1E4A43F4804381
:1006E00053621D4B1A681D4B1340B3F1005F02D2D9
:1006F0001B4B01221A60124BD3F8D43003F4805301
:10070000002B13D10E4BD3F8D4300D4A43F4805351
:10071000C2F8D430134B43F2D2021A60084BD3F81C
:10072000D430074A23F48053C2F8D43000BFBD460A
:100730005DF8047B704700BF00ED00E00020005230
:10074000004402587FEDF6EA000202020000FF01B9
:1007500080020101C00000580010005C0000FFFF93
:100760000881005100400052044BDA6822F0020276
:10077000DA605A689204FCD5704700BF00480258FE
:1007800080B582B000AF00F0A7FA4FF6FF737B6030
:1007900000BF2B4B1B6803F40043002B04D07B6885
:1007A0005A1E7A60002BF4DC7B68002B01DA00F023
:1007B000D1FA00F011FE00F04BF8214BD3F8E030F5
:1007C0001F4A43F00073C2F8E0301D4BD3F8E0300D
:1007D00003F000733B603B68002001F0CFF900217B
:1007E000002001F0E5F94FF6FF737B6000BF144B6A
:1007F0001B6803F40043002B04D17B685A1E7A6007
:10080000002BF4DC7B68002B01DA00F0A3FA00F087
:10081000D3F900F099F800F0D7F800F021F900F0D2
:1008200075F905F007FF074A0021074805F052FF58
:100830000346064A136005F023FF00BFFDE700BF33
:1008400000440258C48F0008AD0C00087802002450
:1008500080B59CB000AF07F124034C22002118465C
:1008600008F0A8FA3B1D20220021184608F0A2FA41
:10087000042001F0E5FA00233B60314BDB6A304A8B
:1008800023F00103D3622E4BDB6A03F001033B60CC
:100890002C4B9B6923F440432A4A43F480439361E1
:1008A000284B9B6903F440433B603B6800BF254BEA
:1008B0009B6903F40053B3F5005FF8D102237B6218
:1008C00001233B6340237B630223BB640023FB645F
:1008D00004233B650A237B650223BB650223FB657A
:1008E00002233B660C237B660223BB660023FB6668
:1008F00007F12403184601F0FDFA0346002B01D04E
:1009000000F028FA3F237B600023BB600023FB60DC
:1009100000233B6140237B614023BB610023FB61DB
:1009200000233B623B1D0121184601F03DFF0346B9
:10093000002B01D000F00EFA00BF7037BD4680BD1D
:10094000000400580048025880B500AF1B4B1C4AF9
:100950001A601A4B1B4A5A60184B00229A60174BB8
:100960000122DA60154B00221A61144B00225A61F1
:10097000124B00229A61114B0022DA610F4B0022C8
:100980001A620E4801F028F90346002B01D000F04E
:10099000E1F90021094801F0BBF90346002B01D021
:1009A00000F0D8F90021054801F0FDF90346002BBD
:1009B00001D000F0CFF900BF80BD00BF800000244F
:1009C00000540040BB7C700080B500AF224B234A2E
:1009D0001A60214B4FF416425A601F4B00229A6056
:1009E0001D4B0022DA601C4B00221A611A4B0C22AC
:1009F0005A61194B00229A61174B00221A62164B5A
:100A000000225A62144B00229A62134B00225A664B
:100A1000114804F0C9FC0346002B01D000F09AF9FC
:100A200000210D4805F0D1FC0346002B01D000F059
:100A300091F90021084805F006FD0346002B01D07E
:100A400000F088F9044805F087FC0346002B01D02C
:100A500000F080F900BF80BDD4000024000C0058D5
:100A600080B500AF274B284A1A60264B4FF480020E
:100A70005A60244B4FF480229A60224B0322DA60A2
:100A8000204B00221A611F4B00225A611D4B00228D
:100A90009A611C4B0022DA611A4B00221A62194B30
:100AA00000225A62174B00229A62164B0022DA6229
:100AB000144B4FF080425A63124B00229A63114B41
:100AC0000022DA630F4B00221A640E4B00225A6494
:100AD0000C4B00229A640B4B0022DA64094B002273
:100AE0001A65084B00225A65064B00229A65054894
:100AF00004F054F80346002B01D000F02BF900BF9E
:100B000080BD00BF680100240030014080B500AF07
:100B1000274B284A1A60264B4FF480025A60244B18
:100B20004FF480229A60224B0322DA60204B00228D
:100B30001A611F4B00225A611D4B00229A611C4B07
:100B40000022DA611A4B00221A62194B00225A6203
:100B5000174B00229A62164B0022DA62144B4FF0B8
:100B600080425A63124B00229A63114B0022DA63CF
:100B70000F4B00221A640E4B00225A640C4B0022C9
:100B80009A640B4B0022DA64094B00221A65084B69
:100B900000225A65064B00229A65054803F0FEFFC5
:100BA0000346002B01D000F0D5F800BF80BD00BF88
:100BB000F0010024003C004080B58AB000AF07F18E
:100BC000140300221A605A609A60DA601A61344B8A
:100BD000D3F8E030324A43F00103C2F8E030304B42
:100BE000D3F8E03003F001033B613B692C4BD3F8B1
:100BF000E0302B4A43F00203C2F8E030284BD3F830
:100C0000E03003F00203FB60FB68254BD3F8E030D3
:100C1000234A43F00403C2F8E030214BD3F8E0301C
:100C200003F00403BB60BB681D4BD3F8E0301C4AE3
:100C300043F01003C2F8E030194BD3F8E03003F072
:100C400010037B607B6800224FF48041154800F060
:100C500061FF00220221144800F05CFF4FF4804342
:100C60007B610123BB610023FB6100233B6207F131
:100C7000140319460B4800F093FD02237B61012306
:100C8000BB610023FB6100233B6207F1140319469B
:100C9000054800F085FD00BF2837BD4680BD00BF78
:100CA00000440258000402580010025880B582B077
:100CB00000AF78600221064800F045FF4FF4804104
:100CC000044800F040FF642000F0E2FB00BFF1E7C1
:100CD000001002580004025880B584B000AF3B46B3
:100CE00000221A605A609A60DA6000F0E1FC012389
:100CF0003B7000237B7000237B601F233B728723A4
:100D00007B720023BB720023FB7201233B73012320
:100D10007B730023BB730023FB733B46184600F034
:100D2000FFFC042000F0DCFC00BF1037BD4680BD96
:100D300080B582B000AF78607B681B68044A93423C
:100D400001D100F085FB00BF0837BD4680BD00BF64
:100D50000010004080B400AF72B600BF00BFFDE7D6
:100D600080B582B000AF0C4BD3F8F4300A4A43F0A0
:100D70000203C2F8F430084BD3F8F43003F0020356
:100D80007B607B6800220F216FF0010000F068FC9F
:100D900000BF0837BD4680BD0044025880B5BAB0D8
:100DA00000AF786007F1D40300221A605A609A609D
:100DB000DA601A6107F11003C0220021184607F01B
:100DC000F9FF7B681B68264A934245D14FF0080221
:100DD0004FF00003C7E904230023C7F8943007F15C
:100DE0001003184602F0AEF80346002B01D0FFF7BF
:100DF000B1FF1C4BD3F8E0301A4A43F00203C2F8AB
:100E0000E030184BD3F8E03003F00203FB60FB68DE
:100E1000C023C7F8D4301223C7F8D8300023C7F84E
:100E2000DC300023C7F8E0300423C7F8E43007F1D2
:100E3000D40319460C4800F0B3FC0A4BD3F8E83051
:100E4000084A43F40013C2F8E830064BD3F8E83000
:100E500003F40013BB60BB6800BFE837BD4680BD2C
:100E600000540040004402580004025880B5BAB053
:100E700000AF786007F1D40300221A605A609A60CC
:100E8000DA601A6107F11003C0220021184607F04A
:100E900091FF7B681B68274A934246D14FF00402BA
:100EA0004FF00003C7E904230023C7F8A43007F17B
:100EB0001003184602F046F80346002B01D0FFF756
:100EC00049FF1D4BD3F8F4301B4A43F00803C2F826
:100ED000F430194BD3F8F43003F00803FB60FB68DF
:100EE000154BD3F8E030144A43F00103C2F8E03068
:100EF000114BD3F8E03003F00103BB60BB684FF443
:100F0000C063C7F8D4300223C7F8D8300023C7F82D
:100F1000DC300023C7F8E0300323C7F8E43007F1E2
:100F2000D4031946054800F03BFC00BFE837BD4636
:100F300080BD00BF000C0058004402580000025859
:100F400080B5BEB000AF786007F1E40300221A60FC
:100F50005A609A60DA601A6107F12003C02200210A
:100F6000184607F027FF7B681B68724A934247D1F7
:100F70004FF480524FF00003C7E908230023C7F85D
:100F8000803007F12003184601F0DCFF0346002BF8
:100F900001D0FFF7DFFE684BD3F8F030664A43F428
:100FA0008053C2F8F030644BD3F8F03003F4805330
:100FB000FB61FB69604BD3F8E0305F4A43F001030B
:100FC000C2F8E0305C4BD3F8E03003F00103BB61C2
:100FD000BB6948F26003C7F8E4300223C7F8E83081
:100FE0000023C7F8EC300023C7F8F0300523C7F81A
:100FF000F43007F1E4031946504800F0D1FB94E0C7
:101000007B681B684E4A934240F08F804FF48052B9
:101010004FF00003C7E908230023C7F8803007F129
:101020002003184601F08EFF0346002B01D0FFF786
:1010300091FE414BD3F8E8303F4A43F40043C2F8F5
:10104000E8303D4BD3F8E83003F400437B617B6923
:10105000394BD3F8E030384A43F00103C2F8E030AE
:10106000354BD3F8E03003F001033B613B69324B71
:10107000D3F8E030304A43F00403C2F8E0302E4B9E
:10108000D3F8E03003F00403FB60FB682A4BD3F88D
:10109000E030294A43F00203C2F8E030264BD3F88F
:1010A000E03003F00203BB60BB681023C7F8E430F4
:1010B0000223C7F8E8300023C7F8EC300023C7F854
:1010C000F0300623C7F8F43007F1E40319461B4853
:1010D00000F066FB4FF48063C7F8E4300223C7F8E2
:1010E000E8300023C7F8EC300023C7F8F0300623BF
:1010F000C7F8F43007F1E4031946124800F050FB3A
:101100001023C7F8E4300223C7F8E8300023C7F8FB
:10111000EC300023C7F8F0300623C7F8F43007F1AD
:10112000E4031946084800F03BFB00BFF837BD4612
:1011300080BD00BF0030014000440258000002584A
:10114000003C0040000802580004025880B590B0EE
:1011500000AF78607B680F2B27D800227968362093
:1011600000F07EFA362000F095FA294A7B68136079
:10117000284BD3F8E830274A43F01003C2F8E83090
:10118000244BD3F8E83003F01003FB60FB6807F151
:10119000100207F114031146184601F091FEBB6AD4
:1011A000BB63BB6B002B06D101E001232BE001F0F8
:1011B0005BFEF86304E001F057FE03465B00FB634F
:1011C000FB6B154AA2FB03239B0C013B7B63134B78
:1011D000134A1A60114B40F2E732DA600F4A7B6B18
:1011E00053600E4B00221A610C4B00229A600B4890
:1011F00003F013FE0346002B04D1084803F06EFEF3
:10120000034600E0012318464037BD4680BD00BFBD
:10121000080000240044025883DE1B437C020024A3
:101220000010004080B400AF00BFFDE780B400AF05
:1012300000BFFDE780B400AF00BFFDE780B400AFA2
:1012400000BFFDE780B400AF00BFFDE780B400AF92
:1012500000BFBD465DF8047B7047000080B500AF5D
:10126000024803F0B3FE00BF80BD00BF7C02002433
:10127000DFF838D0FFF778FAFFF7C8F90C480D49C6
:101280000D4A002302E0D458C4500433C4188C42E1
:10129000F9D30A4A0A4C002301E013600432A24247
:1012A000FBD307F0EDFDFFF76BFAFEE70000082423
:1012B000000000246400002424900008640000243E
:1012C000F84D0024FEE780B584B000AF78607B68FD
:1012D000002B05D172B600BFFFF73CFD00BFFDE754
:1012E0007B681B7A012B05D972B600BFFFF732FD70
:1012F00000BFFDE77B681B7A5A1CD1B27A68117275
:101300001946EFF311824FF0500383F31188BFF3B6
:101310006F8FBFF34F8FFA60BB60FA687B6843F84A
:10132000212000BF1037BD4680BD80B584B000AF1E
:1013300078607B68002B05D172B600BFFFF70AFD0D
:1013400000BFFDE77B681B7A013BDAB27B681A724B
:101350007B681B7A012B05D972B600BFFFF7FAFC38
:1013600000BFFDE77B681B7A1A467B6853F8223082
:10137000FB60FB6883F3118800BF00BF1037BD46D8
:1013800080BD80B582B000AF78607B68002B05D14E
:1013900072B600BFFFF7DEFC00BFFDE77B681846B2
:1013A000FFF791FF00BF0837BD4680BD80B582B012
:1013B00000AF78607B68002B05D172B600BFFFF7E5
:1013C000C9FC00BFFDE77B681846FFF7AEFF00BF12
:1013D0000837BD4680BD000080B582B000AF032055
:1013E00000F033F901F096FB0246154B9B691B0A8E
:1013F00003F00F031349CB5C03F01F0322FA03F33E
:101400007B600F4B9B6903F00F030E4AD35C03F024
:101410001F037A6822FA03F30B4A13600B4A7B68B6
:1014200013600F20FFF792FE0346002B01D001232B
:1014300002E0FFF795FC002318460837BD4680BD43
:1014400000440258A88F0008040000240000002473
:1014500080B400AF064B1B781A46064B1B6813443A
:10146000044A136000BFBD465DF8047B704700BFAF
:101470000C000024D402002480B400AF034B1B688E
:101480001846BD465DF8047B704700BFD4020024B7
:1014900080B584B000AF7860FFF7EEFFB8607B687E
:1014A000FB60FB68B3F1FF3F05D00A4B1B781A467F
:1014B000FB681344FB6000BFFFF7DEFF0246BB681A
:1014C000D31AFA689A42F7D800BF00BF1037BD465A
:1014D00080BD00BF0C00002480B400AF034B1B682C
:1014E0001B0C1846BD465DF8047B70470010005C7D
:1014F00080B485B000AF78607B6803F00703FB60C1
:101500000B4BDB68BB60BA684FF6FF031340BB6050
:10151000FB681A02BB681A43064B1343BB60044ABC
:10152000BB68D36000BF1437BD465DF8047B7047CD
:1015300000ED00E00000FA0580B400AF044BDB686A
:101540001B0A03F007031846BD465DF8047B70478D
:1015500000ED00E080B483B000AF0346FB80B7F934
:101560000630002B0BDBFB8803F01F020749B7F99D
:1015700006305B09012000FA02F241F8232000BF87
:101580000C37BD465DF8047B704700BF00E100E00A
:1015900080B483B000AF03463960FB80B7F90630F2
:1015A000002B0ADB3B68DAB20C49B7F906301201AE
:1015B000D2B20B4483F800230AE03B68DAB2084950
:1015C000FB8803F00F03043B1201D2B20B441A76DE
:1015D00000BF0C37BD465DF8047B704700E100E0BA
:1015E00000ED00E080B489B000AFF860B9607A60C7
:1015F000FB6803F00703FB61FB69C3F10703042BDE
:1016000028BF0423BB61FB690433062B02D9FB69A5
:10161000033B00E000237B614FF0FF32BB6902FA1D
:1016200003F3DA43BB681A407B699A404FF0FF31FD
:101630007B6901FA03F3D9437B680B4013431846D7
:101640002437BD465DF8047B704780B582B000AF9B
:1016500078607868FFF74CFF00BF0837BD4680BD53
:1016600080B586B000AF0346B9607A60FB81FFF7B2
:1016700063FF78617A68B9687869FFF7B3FF02465B
:10168000B7F90E3011461846FFF782FF00BF183732
:10169000BD4680BD80B582B000AF0346FB80B7F980
:1016A00006301846FFF756FF00BF0837BD4680BD1D
:1016B00080B400AFBFF35F8F00BF074B5B6A064A81
:1016C00023F480335362054B00225A6000BFBD46AD
:1016D0005DF8047B704700BF00ED00E090ED00E096
:1016E00080B483B000AF78600B4A7B6843F001039D
:1016F00053600A4B5B6A094A43F480335362BFF379
:101700004F8F00BFBFF36F8F00BF00BF0C37BD46C8
:101710005DF8047B704700BF90ED00E000ED00E055
:1017200080B483B000AF78607B685A781B4B9A60B6
:101730001A4B1B69194A23F001031361174A7B688E
:101740005B68D3607B681B7B1A077B68DB7A1B06B0
:101750001A437B689B7ADB041A437B685B7B9B04A0
:101760001A437B689B7B5B041A437B68DB7B1B040F
:101770001A437B685B7A1B021A437B681B7A5B0007
:1017800013437A6812781146044A0B43136100BF71
:101790000C37BD465DF8047B704700BF90ED00E05C
:1017A00080B489B000AF786039600023FB618E4B54
:1017B0007B619EE13B681A680121FB6901FA03F332
:1017C00013403B613B69002B00F090813B685B68F4
:1017D00003F00303012B05D03B685B6803F00303B0
:1017E000022B30D17B689B68BB61FB695B000322E5
:1017F00002FA03F3DB43BA691340BB613B68DA6862
:10180000FB695B0002FA03F3BA691343BB617B68AF
:10181000BA699A607B685B68BB610122FB6902FA66
:1018200003F3DB43BA691340BB613B685B681B0988
:1018300003F00102FB6902FA03F3BA691343BB61C7
:101840007B68BA695A603B685B6803F00303032B4B
:1018500009D13B685B6803F00303032B1BD13B6892
:101860009B68012B17D07B68DB68BB61FB695B0061
:10187000032202FA03F3DB43BA691340BB613B68FE
:101880009A68FB695B0002FA03F3BA691343BB6110
:101890007B68BA69DA603B685B6803F00303022B7C
:1018A00023D1FB69DA087B68083253F82230BB6128
:1018B000FB6903F007039B000F2202FA03F3DB43EB
:1018C000BA691340BB613B681A69FB6903F00703FF
:1018D0009B0002FA03F3BA691343BB61FB69DA08A0
:1018E0007B680832B96943F822107B681B68BB61CA
:1018F000FB695B00032202FA03F3DB43BA6913407E
:10190000BB613B685B6803F00302FB695B0002FAA2
:1019100003F3BA691343BB617B68BA691A603B6819
:101920005B6803F44033002B00F0E0802F4BD3F8CA
:10193000F4302E4A43F00203C2F8F4302B4BD3F8B4
:10194000F43003F00203FB60FB68294AFB699B0843
:10195000023352F82330BB61FB6903F003039B00A1
:101960000F2202FA03F3DB43BA691340BB617B68C1
:10197000204A934252D07B681F4A934231D07B6801
:101980001E4A93422BD07B681D4A934225D07B6828
:101990001C4A93421FD07B681B4A934219D07B6834
:1019A0001A4A934213D07B68194A93420DD07B6840
:1019B000184A934207D07B68174A934201D1092302
:1019C0002DE00A232BE0082329E0072327E0062344
:1019D00025E0052323E0042321E003231FE0022365
:1019E0001DE001231BE000BF8000005800440258A6
:1019F0000004005800000258000402580008025871
:101A0000000C025800100258001402580018025826
:101A1000001C025800200258002402580023FA69D2
:101A200002F0030292009340BA691343BB61384944
:101A3000FB699B080233BA6941F823204FF0B04399
:101A40001B68BB613B69DB43BA691340BB613B6800
:101A50005B6803F48013002B03D0BA693B6913431E
:101A6000BB614FF0B042BB6913604FF0B0435B689D
:101A7000BB613B69DB43BA691340BB613B685B6890
:101A800003F40013002B03D0BA693B691343BB6115
:101A90004FF0B042BB6953607B695B68BB613B69D7
:101AA000DB43BA691340BB613B685B6803F40033F6
:101AB000002B03D0BA693B691343BB617B69BA69E8
:101AC0005A607B691B68BB613B69DB43BA691340A1
:101AD000BB613B685B6803F48033002B03D0BA69B9
:101AE0003B691343BB617B69BA691A60FB690133C7
:101AF000FB613B681A68FB6922FA03F3002B7FF451
:101B000059AE00BF00BF2437BD465DF8047B704767
:101B10000004005880B483B000AF78600B467B802F
:101B200013467B707B78002B03D07A887B689A61A0
:101B300003E07B881A047B689A6100BF0C37BD46BE
:101B40005DF8047B704780B485B000AF78600B46C9
:101B50007B807B685B69FB607A88FB6813401A04B2
:101B6000FB68D9437B880B401A437B689A6100BFAE
:101B70001437BD465DF8047B7047000080B483B025
:101B800000AF7860084A7B68203352F82330074A58
:101B9000934201D1002300E0012318460C37BD46D3
:101BA0005DF8047B704700BF0064025800030080AA
:101BB00080B483B000AF7860396006493B6843F475
:101BC00040727B6841F8232000BF0C37BD465DF8AA
:101BD000047B70470064025880B582B000AF786023
:101BE0007B68002B01D101238BE07B6893F84130A7
:101BF000DBB2002B06D17B68002283F84020786896
:101C0000FFF7CCF87B68242283F841207B681B68AF
:101C10001A687B681B6822F001021A607B685A68A8
:101C20007B681B6822F070621A617B681B689A6887
:101C30007B681B6822F400429A607B68DB68012B9A
:101C400007D17B689A687B681B6842F400429A60FF
:101C500006E07B689A687B681B6842F404429A60DD
:101C60007B68DB68022B08D17B681B685A687B683D
:101C70001B6842F400625A6007E07B681B685A6880
:101C80007B681B6822F400625A607B681B68596895
:101C90007B681A681D4B0B4353607B681B68DA68CE
:101CA0007B681B6822F40042DA607B681A697B68F3
:101CB0005B6942EA03017B689B691A027B681B68C7
:101CC0000A43DA607B68D9697B681A6A7B681B689B
:101CD0000A431A607B681B681A687B681B6842F0BD
:101CE00001021A607B6800225A647B68202283F814
:101CF00041207B6800221A637B68002283F842201F
:101D0000002318460837BD4680BD00BF0080000292
:101D100080B483B000AF786039607B6893F841305D
:101D2000DBB2202B38D17B6893F84030012B01D1F6
:101D3000022332E07B68012283F840207B68242262
:101D400083F841207B681B681A687B681B6822F057
:101D500001021A607B681B681A687B681B6822F4A2
:101D600080521A607B681B6819687B681B683A6838
:101D70000A431A607B681B681A687B681B6842F01C
:101D800001021A607B68202283F841207B680022D0
:101D900083F84020002300E0022318460C37BD469C
:101DA0005DF8047B704780B485B000AF786039601F
:101DB0007B6893F84130DBB2202B39D17B6893F8F4
:101DC0004030012B01D1022333E07B68012283F8EC
:101DD00040207B68242283F841207B681B681A68B6
:101DE0007B681B6822F001021A607B681B681B6815
:101DF000FB60FB6823F47063FB603B681B02FA68BE
:101E00001343FB607B681B68FA681A607B681B6879
:101E10001A687B681B6842F001021A607B68202206
:101E200083F841207B68002283F84020002300E0F3
:101E3000022318461437BD465DF8047B7047000046
:101E400080B584B000AF7860294BDB6803F00703EE
:101E5000062B0AD0264BDB6803F03F037A689A42D0
:101E600001D0012340E000233EE0214BDB6823F05A
:101E70003F021F497B681343CB60FFF7FDFAF86010
:101E800009E0FFF7F9FA0246FB68D31AB3F57A7F47
:101E900001D9012328E0164B5B6803F40053B3F526
:101EA000005FEED17B681E2B08D07B682E2B05D0FF
:101EB0007B681D2B02D07B682D2B14D1FFF7DCFA39
:101EC000F86009E0FFF7D8FA0246FB68D31AB3F5C9
:101ED0007A7F01D9012307E0054BDB6803F48033E7
:101EE000B3F5803FEED1002318461037BD4680BDC4
:101EF0000048025880B58CB000AF78607B68002B3A
:101F000002D1012300F048BC7B681B6803F0010389
:101F1000002B00F08880994B1B6903F03803FB62AB
:101F2000964B9B6ABB62FB6A102B07D0FB6A182B8F
:101F300011D1BB6A03F00303022B0CD18F4B1B683A
:101F400003F40033002B6DD07B685B68002B69D1F4
:101F5000012300F021BC7B685B68B3F5803F06D1AC
:101F6000864B1B68854A43F4803313602EE07B6800
:101F70005B68002B0CD1814B1B68804A23F48033B3
:101F800013607E4B1B687D4A23F4802313601DE0A1
:101F90007B685B68B3F5A02F0CD1784B1B68774A40
:101FA00043F480231360754B1B68744A43F48033F9
:101FB00013600BE0714B1B68704A23F4803313608D
:101FC0006E4B1B686D4A23F4802313607B685B684B
:101FD000002B13D0FFF750FA786208E0FFF74CFAB5
:101FE00002467B6AD31A642B01D90323D4E3634BE3
:101FF0001B6803F40033002BF0D014E0FFF73CFA29
:10200000786208E0FFF738FA02467B6AD31A642B3D
:1020100001D90323C0E3594B1B6803F40033002BA1
:10202000F0D100E000BF7B681B6803F00203002BC7
:1020300000F0CA80514B1B6903F038033B624F4BE1
:102040009B6AFB613B6A002B07D03B6A182B56D179
:10205000FB6903F00303002B51D1484B1B6803F0CD
:102060000403002B05D07B68DB68002B01D1012322
:1020700092E3424B1B6823F019027B68DB683F49FF
:1020800013430B60FFF7F8F9786208E0FFF7F4F903
:1020900002467B6AD31A022B01D903237CE3374B18
:1020A0001B6803F00403002BF0D0FFF715FA03467A
:1020B00041F20302934217D87B681B69402B08D179
:1020C0002E4B5B6823F47C332C4A43F4003353607B
:1020D0007AE02A4B5B6823F47C327B681B691B0324
:1020E000264913434B606FE0244B5B6823F0FE42AC
:1020F0007B681B691B06214913434B6064E07B68C6
:10210000DB68002B47D01D4B1B6823F019027B684E
:10211000DB681A4913430B60FFF7AEF9786208E0F9
:10212000FFF7AAF902467B6AD31A022B01D90323CF
:1021300032E3124B1B6803F00403002BF0D0FFF7CF
:10214000CBF9034641F20302934219D87B681B691D
:10215000402B08D1094B5B6823F47C33074A43F4D6
:102160000033536030E0054B5B6823F47C327B68BE
:102170001B691B03014913434B6025E000440258CF
:102180009A4B5B6823F0FE427B681B691B069749EC
:1021900013434B6018E0954B1B68944A23F00103EE
:1021A0001360FFF769F9786208E0FFF765F9024606
:1021B0007B6AD31A022B01D90323EDE28B4B1B68F8
:1021C00003F00403002BF0D17B681B6803F01003BD
:1021D000002B00F0A980854B1B6903F03803BB611D
:1021E000824B9B6A7B61BB69082B07D0BB69182BAC
:1021F0003AD17B6903F00303012B35D17B4B1B687C
:1022000003F48073002B05D07B68DB69802B01D041
:102210000123C1E2FFF760F9034641F20302934252
:1022200017D87B681B6A202B08D1704B5B6823F0A2
:10223000F8436E4A43F08043536075E06B4B5B6834
:1022400023F0F8427B681B6A9B06684913434B6086
:102250006AE0664BDB6823F07C527B681B6A1B06D6
:1022600062491343CB605FE07B68DB69002B42D09F
:102270005E4B1B685D4A43F080031360FFF7FCF878
:10228000786208E0FFF7F8F802467B6AD31A022B5F
:1022900001D9032380E2554B1B6803F48073002BA4
:1022A000F0D0FFF719F9034641F20302934217D821
:1022B0007B681B6A202B08D14C4B5B6823F0F843EA
:1022C0004A4A43F0804353602EE0484B5B6823F05A
:1022D000F8427B681B6A9B06444913434B6023E02A
:1022E000424BDB6823F07C527B681B6A1B063F492C
:1022F0001343CB6018E03D4B1B683C4A23F080033E
:102300001360FFF7B9F8786208E0FFF7B5F8024606
:102310007B6AD31A022B01D903233DE2334B1B689E
:1023200003F48073002BF0D17B681B6803F0080373
:10233000002B36D07B685B69002B19D02B4B5B6F71
:102340002A4A43F001035367FFF796F8786208E0E2
:10235000FFF792F802467B6AD31A022B01D90323B6
:102360001AE2224B5B6F03F00203002BF0D018E05F
:102370001E4B5B6F1D4A23F001035367FFF77CF888
:10238000786208E0FFF778F802467B6AD31A022BDE
:1023900001D9032300E2154B5B6F03F00203002B0E
:1023A000F0D17B681B6803F02003002B39D07B68D9
:1023B0009B69002B1CD00D4B1B680C4A43F48053C7
:1023C0001360FFF759F8786208E0FFF755F8024606
:1023D0007B6AD31A022B01D90323DDE1034B1B686F
:1023E00003F40053002BF0D01BE000BF0044025860
:1023F0009B4B1B689A4A23F480531360FFF73CF809
:10240000786208E0FFF738F802467B6AD31A022B9D
:1024100001D90323C0E1924B1B6803F40053002B46
:10242000F0D17B681B6803F00403002B00F081806F
:102430008C4B1B688B4A43F480731360FFF71CF8C6
:10244000786208E0FFF718F802467B6AD31A642B1B
:1024500001D90323A0E1834B1B6803F48073002B95
:10246000F0D07B689B68012B06D17D4B1B6F7C4AAB
:1024700043F0010313672DE07B689B68002B0CD1B0
:10248000774B1B6F764A23F001031367744B1B6F66
:10249000734A23F0040313671CE07B689B68052BD9
:1024A0000CD16F4B1B6F6E4A43F0040313676C4BE8
:1024B0001B6F6B4A43F0010313670BE0684B1B6F04
:1024C000674A23F001031367654B1B6F644A23F0CF
:1024D000040313677B689B68002B15D0FEF7CCFFC5
:1024E00078620AE0FEF7C8FF02467B6AD31A41F21F
:1024F0008832934201D903234EE1594B1B6F03F0FD
:102500000203002BEED014E0FEF7B6FF78620AE07B
:10251000FEF7B2FF02467B6AD31A41F28832934239
:1025200001D9032338E14E4B1B6F03F00203002B4C
:10253000EED17B685B6A002B00F02D81484B1B6954
:1025400003F03803182B00F0BD807B685B6A022B18
:1025500040F09E80424B1B68414A23F08073136019
:10256000FEF78AFF786208E0FEF786FF02467B6A84
:10257000D31A022B01D903230EE1394B1B6803F058
:102580000073002BF0D1364B9A6A374B13407A68B0
:10259000916A7A68D26A12010A43314913438B6205
:1025A0007B681B6B013BC3F308027B685B6B013BE1
:1025B0005B029BB21A437B689B6B013B1B0403F4D9
:1025C000FE031A437B68DB6B013B1B0603F0FE43F3
:1025D000234913430B63224BDB6A214A23F0010397
:1025E000D3621F4B5A6B214B13407A68926CD20016
:1025F0001B4913434B631A4BDB6A23F00C027B68C5
:102600001B6C17491343CB62154BDB6A23F00202A4
:102610007B685B6C12491343CB62114BDB6A104A37
:1026200043F48033D3620E4BDB6A0D4A43F400332C
:10263000D3620B4BDB6A0A4A43F48023D362084B14
:10264000DB6A074A43F00103D362054B1B68044A67
:1026500043F080731360FEF70FFF786211E000BF54
:1026600000440258004802580CFCFFFF0700FFFF1F
:10267000FEF702FF02467B6AD31A022B01D903231D
:102680008AE0474B1B6803F00073002BF0D082E018
:10269000434B1B68424A23F080731360FEF7ECFE45
:1026A000786208E0FEF7E8FE02467B6AD31A022B46
:1026B00001D9032370E03A4B1B6803F00073002B31
:1026C000F0D168E0364B9B6A3B61354B1B6BFB607E
:1026D0007B685B6A012B31D03B6903F003027B68A6
:1026E0009B6A9A422AD13B691B0903F03F027B682F
:1026F000DB6A9A4222D1FB68C3F308027B681B6B3A
:10270000013B9A421AD1FB685B0A03F07F027B68A7
:102710005B6B013B9A4211D1FB681B0C03F07F02FB
:102720007B689B6B013B9A4208D1FB681B0E03F050
:102730007F027B68DB6B013B9A4201D001232BE0D7
:10274000174B5B6BDB08C3F30C033B617B689B6C33
:102750003A699A421FD0124BDB6A114A23F00103F7
:10276000D362FEF789FE786200BFFEF785FE02465F
:102770007B6A9342F9D00A4B5A6B0A4B13407A6832
:10278000926CD200064913434B63054BDB6A044A43
:1027900043F00103D362002318463037BD4680BDA5
:1027A000004402580700FFFF80B586B000AF786094
:1027B00039607B68002B01D101239CE18A4B1B68A7
:1027C00003F00F033A689A4210D9874B1B6823F035
:1027D0000F0285493B6813430B60834B1B6803F072
:1027E0000F033A689A4201D0012384E17B681B6899
:1027F00003F00403002B10D07B681A697B4B9B69A4
:1028000003F070039A4208D9784B9B6923F0700259
:102810007B681B69754913438B617B681B6803F0F8
:102820000803002B10D07B685A69704BDB6903F0FA
:1028300070039A4208D96D4BDB6923F070027B6804
:102840005B696A491343CB617B681B6803F0100323
:10285000002B10D07B689A69644BDB6903F4E0635A
:102860009A4208D9614BDB6923F4E0627B689B697B
:102870005E491343CB617B681B6803F02003002B88
:1028800010D07B68DA69594B1B6A03F070039A42D7
:1028900008D9564B1B6A23F070027B68DB695349E9
:1028A00013430B627B681B6803F00203002B10D0FC
:1028B0007B68DA684D4B9B6903F00F039A4208D995
:1028C0004A4B9B6923F00F027B68DB68474913433F
:1028D0008B617B681B6803F00103002B55D0434BD1
:1028E0009B6923F470627B689B68404913438B614A
:1028F0007B685B68022B07D13C4B1B6803F40033F9
:10290000002B21D10123F6E07B685B68032B07D104
:10291000364B1B6803F00073002B15D10123EAE04E
:102920007B685B68012B07D1304B1B6803F4807315
:10293000002B09D10123DEE02C4B1B6803F00403BC
:10294000002B01D10123D6E0284B1B6923F007029D
:102950007B685B68254913430B61FEF78DFD786149
:102960000AE0FEF789FD02467B69D31A41F28832FC
:10297000934201D90323BEE01C4B1B6903F03802CC
:102980007B685B68DB009A42EBD17B681B6803F0D5
:102990000203002B10D07B68DA68144B9B6903F0AC
:1029A0000F039A4208D2114B9B6923F00F027B68F8
:1029B000DB680E4913438B610B4B1B6803F00F035D
:1029C0003A689A4214D2084B1B6823F00F0206495A
:1029D0003B6813430B60044B1B6803F00F033A681A
:1029E0009A4205D0012386E000200052004402589C
:1029F0007B681B6803F00403002B10D07B681A6906
:102A00003F4B9B6903F070039A4208D23C4B9B6991
:102A100023F070027B681B69394913438B617B6823
:102A20001B6803F00803002B10D07B685A69344BF5
:102A3000DB6903F070039A4208D2314BDB6923F063
:102A400070027B685B692E491343CB617B681B680E
:102A500003F01003002B10D07B689A69284BDB69C8
:102A600003F4E0639A4208D2254BDB6923F4E06269
:102A70007B689B6922491343CB617B681B6803F029
:102A80002003002B10D07B68DA691D4B1B6A03F012
:102A900070039A4208D21A4B1B6A23F070027B68BB
:102AA000DB69174913430B6200F034F80246144BFC
:102AB0009B691B0A03F00F031249CB5C03F01F0351
:102AC00022FA03F33B610E4B9B6903F00F030D4A9F
:102AD000D35C03F01F033A6922FA03F30A4A136036
:102AE0000A4A3B6913600A4B1B681846FEF72EFB27
:102AF0000346FB73FB7B18461837BD4680BD00BFFD
:102B000000440258A88F000804000024000000249C
:102B10000800002480B489B000AFB34B1B6903F0F8
:102B20003803182B00F2558101A252F823F000BFA0
:102B3000952B0008D32D0008D32D0008D32D0008B5
:102B4000D32D0008D32D0008D32D0008D32D000865
:102B5000BB2B0008D32D0008D32D0008D32D00086F
:102B6000D32D0008D32D0008D32D0008D32D000845
:102B7000C12B0008D32D0008D32D0008D32D000849
:102B8000D32D0008D32D0008D32D0008D32D000825
:102B9000C72B0008944B1B6803F02003002B09D0BF
:102BA000914B1B68DB0803F00303904A22FA03F3FE
:102BB000BB6111E18D4BBB610EE18D4BBB610BE144
:102BC0008C4BBB6108E1884B9B6A03F003037B617C
:102BD000854B9B6A1B0903F03F033B61824BDB6A19
:102BE00003F00103FB60804B5B6BDB08C3F30C035A
:102BF000FA6802FB03F307EE903AF8EE677AC7ED46
:102C0000027A3B69002B00F0E1807B69022B00F027
:102C100083807B69022B00F2A1807B69002B03D0AB
:102C20007B69012B56D099E06F4B1B6803F02003A2
:102C3000002B2DD06C4B1B68DB0803F003036B4AA1
:102C400022FA03F37B607B6807EE903AF8EE676A3E
:102C50003B6907EE903AF8EE677A86EEA77A624B08
:102C60001B6BC3F3080307EE903AF8EE676A97ED23
:102C7000026ADFED615AC6EE257A76EEA77AF7EEA4
:102C8000006A77EEA67A67EE277AC7ED077A87E0C3
:102C90003B6907EE903AF8EE677ADFED586A86EE08
:102CA000A77A514B1B6BC3F3080307EE903AF8EE7B
:102CB000676A97ED026ADFED505AC6EE257A76EE26
:102CC000A77AF7EE006A77EEA67A67EE277AC7ED65
:102CD000077A65E03B6907EE903AF8EE677ADFED38
:102CE000486A86EEA77A404B1B6BC3F3080307EED6
:102CF000903AF8EE676A97ED026ADFED3F5AC6EE4A
:102D0000257A76EEA77AF7EE006A77EEA67A67EE76
:102D1000277AC7ED077A43E03B6907EE903AF8EE71
:102D2000677ADFED386A86EEA77A2F4B1B6BC3F309
:102D3000080307EE903AF8EE676A97ED026ADFED56
:102D40002E5AC6EE257A76EEA77AF7EE006A77EE6F
:102D5000A67A67EE277AC7ED077A21E03B6907EE8E
:102D6000903AF8EE677ADFED266A86EEA77A1E4B78
:102D70001B6BC3F3080307EE903AF8EE676A97ED12
:102D8000026ADFED1D5AC6EE257A76EEA77AF7EED7
:102D9000006A77EEA67A67EE277AC7ED077A00BF5A
:102DA000114B1B6B5B0A03F07F0301333B603B68F5
:102DB00007EE903AB8EE677AD7ED076AC6EE877AE3
:102DC000FCEEE77A17EE903ABB6105E00023BB61A9
:102DD00002E0074BBB6100BFBB6918462437BD4604
:102DE0005DF8047B704700BF004402580090D00398
:102DF00000093D0040787D01000000460024744C2D
:102E00000024744A20BCBE4B80B582B000AFFFF7EF
:102E100081FE0246104B9B691B0A03F00F030F490A
:102E2000CB5C03F01F0322FA03F37B600A4B9B6920
:102E300003F00F03094AD35C03F01F037A6822FAF8
:102E400003F3074A1360074A7B681360044B1B684F
:102E500018460837BD4680BD00440258A88F0008B8
:102E6000040000240000002480B500AFFFF7CCFF71
:102E70000246064BDB691B0903F007030449CB5CE0
:102E800003F01F0322FA03F3184680BD00440258E2
:102E9000A88F000880B500AFFFF7B6FF0246064BCB
:102EA000DB691B0A03F007030449CB5C03F01F0333
:102EB00022FA03F3184680BD00440258A88F000888
:102EC00080B483B000AF786039607B683F221A60BD
:102ED0001A4B1B6903F007027B685A60174B9B690A
:102EE00003F470627B689A60144B9B6903F00F02D5
:102EF0007B68DA60114B9B6903F070027B681A6192
:102F00000E4BDB6903F070027B685A610B4BDB6987
:102F100003F4E0627B689A61084B1B6A03F070025D
:102F20007B68DA61064B1B6803F00F023B681A608E
:102F300000BF0C37BD465DF8047B70470044025863
:102F4000002000522DE9B04FCAB000AFC7F81401FD
:102F5000002387F82731002387F82631D7F814316A
:102F6000D3E9002302F00064002554EA050349D0A8
:102F7000D7F814319B6EB3F5401F2FD0B3F5401F27
:102F800028D8B3F5001F1AD0B3F5001F22D8002BA4
:102F900003D0B3F5801F07D01CE0B84BDB6AB74AFB
:102FA00043F40033D3621AE0D7F814310833022116
:102FB000184601F08FFC034687F827310FE0D7F859
:102FC000143128330221184601F036FD034687F8F4
:102FD000273104E0012387F8273100E000BF97F88C
:102FE0002731002B0AD1A54B1B6D23F44011D7F8D4
:102FF00014319B6EA14A0B43136503E097F8273108
:1030000087F82631D7F81431D3E9002302F4807809
:103010004FF0000958EA090347D0D7F814319B6DE7
:10302000042B2AD801A252F823F000BF4130000837
:103030004F300008653000088330000883300008F6
:103040008E4BDB6A8D4A43F40033D3621AE0D7F823
:10305000143108330021184601F03CFC034687F880
:1030600027310FE0D7F8143128330021184601F03A
:10307000E3FC034687F8273104E0012387F8273172
:1030800000E000BF97F82731002B0AD17B4B1B6D66
:1030900023F00701D7F814319B6D784A0B43136571
:1030A00003E097F8273187F82631D7F81431D3E9B0
:1030B000002302F4007A4FF0000B5AEA0B034CD0C5
:1030C000D7F81431DB6DB3F5807F30D0B3F5807F56
:1030D00029D8C02B2DD0C02B25D8802B18D0802BE1
:1030E00021D8002B02D0402B07D01CE0634BDB6AB9
:1030F000624A43F40033D3621CE0D7F8143108333A
:103100000021184601F0E6FB034687F8273111E05D
:10311000D7F8143128330021184601F08DFC0346FE
:1031200087F8273106E0012387F8273102E000BF46
:1031300000E000BF97F82731002B0AD14F4B1B6DE1
:1031400023F4E071D7F81431DB6D4C4A0B4313655F
:1031500003E097F8273187F82631D7F81431D3E9FF
:10316000002302F48063C7F808310023C7F80C314C
:10317000D7E942120B46134353D0D7F81431D3F892
:10318000A830B3F5000F35D0B3F5000F2ED8B3F546
:10319000C00F31D0B3F5C00F28D8B3F5800F1AD0C7
:1031A000B3F5800F22D8002B03D0B3F5001F07D052
:1031B0001CE0324BDB6A314A43F40033D3621CE03B
:1031C000D7F8143108330021184601F083FB034679
:1031D00087F8273111E0D7F8143128330021184639
:1031E00001F02AFC034687F8273106E0012387F81F
:1031F000273102E000BF00E000BF97F82731002B25
:103200000BD11E4B9B6D23F46001D7F81431D3F81A
:10321000A8301A4A0B43936503E097F8273187F8E3
:103220002631D7F81431D3E9002302F40063C7F83C
:1032300000310023C7F80431D7E940120B4613438D
:1032400056D0D7F81431D3F8AC30B3F1806F38D002
:10325000B3F1806F31D8B3F1407F34D0B3F1407F08
:103260002BD8B3F1007F1DD0B3F1007F25D8002B00
:1032700006D0B3F1807F0AD01FE000BF004402589F
:10328000A24BDB6AA14A43F40033D3621CE0D7F8B7
:10329000143108330021184601F01CFB034687F85F
:1032A000273111E0D7F8143128330021184601F0F6
:1032B000C3FB034687F8273106E0012387F827314F
:1032C00002E000BF00E000BF97F82731002B0BD1D0
:1032D0008E4B9B6D23F0E061D7F81431D3F8AC30FE
:1032E0008A4A0B43936503E097F8273187F8263124
:1032F000D7F81431D3E9002302F00073C7F8F8308F
:103300000023C7F8FC30D7E93E120B4613433AD0EE
:10331000D7F81431DB6C302B1FD0302B19D8202B71
:103320000CD0202B15D8002B19D0102B11D1774B96
:10333000DB6A764A43F40033D36211E0D7F81431E4
:1033400008330221184601F0C5FA034687F82731F1
:1033500006E0012387F8273102E000BF00E000BF4C
:1033600097F82731002B0AD1684BDB6C23F0300132
:10337000D7F81431DB6C654A0B43D36403E097F84C
:10338000273187F82631D7F81431D3E9002302F426
:103390008053C7F8F0300023C7F8F430D7E93C1267
:1033A0000B46134351D0D7F814311B6EB3F5804F41
:1033B00035D0B3F5804F2ED8B3F5405F31D0B3F59B
:1033C000405F28D8B3F5005F1AD0B3F5005F22D86C
:1033D000002B03D0B3F5805F07D01CE04B4BDB6ABA
:1033E0004A4A43F40033D3621CE0D7F8143108335F
:1033F0000021184601F06EFA034687F8273111E0E4
:10340000D7F8143128330021184601F015FB034684
:1034100087F8273106E0012387F8273102E000BF53
:1034200000E000BF97F82731002B0AD1374B1B6D06
:1034300023F4E041D7F814311B6E344A0B43136573
:1034400003E097F8273187F82631D7F81431D3E90C
:10345000002302F40053C7F8E8300023C7F8EC302B
:10346000D7E93A120B46134356D0D7F814315B6EA6
:10347000B3F5A02F33D0B3F5A02F2CD8B3F5802F00
:103480002FD0B3F5802F26D8B3F5403F2BD0B3F51E
:10349000403F20D8B3F5003F12D0B3F5003F1AD813
:1034A000002B22D0B3F5803F15D1D7F81431083363
:1034B0000121184601F00EFA034687F8273115E07E
:1034C000D7F8143128330121184601F0B5FA034624
:1034D00087F827310AE0012387F8273106E000BF8B
:1034E00004E000BF02E000BF00E000BF97F8273112
:1034F000002B0DD1054B1B6D23F4E021D7F81431BF
:103500005B6E024A0B43136506E000BF004402589D
:1035100097F8273187F82631D7F81431D3E90023FB
:1035200002F48043C7F8E0300023C7F8E430D7E95D
:1035300038120B46134355D0D7F81431D3F8B030B6
:10354000B3F1A04F33D0B3F1A04F2CD8B3F1804FDB
:103550002FD0B3F1804F26D8B3F1405F2BD0B3F119
:10356000405F20D8B3F1005F12D0B3F1005F1AD8EA
:10357000002B22D0B3F1805F15D1D7F81431083376
:103580000121184601F0A6F9034687F8273115E016
:10359000D7F8143128330121184601F04DFA0346BB
:1035A00087F827310AE0012387F8273106E000BFBA
:1035B00004E000BF02E000BF00E000BF97F8273141
:1035C000002B0BD1A34B9B6D23F0E041D7F81431B6
:1035D000D3F8B0309F4A0B43936503E097F8273147
:1035E00087F82631D7F81431D3E9002302F40043D9
:1035F000C7F8D8300023C7F8DC30D7E936120B46BD
:10360000134337D0D7F814311B6FB3F1005F0ED0DE
:10361000B3F1005F16D8002B18D0B3F1805F11D141
:103620008C4BDB6A8B4A43F40033D3620FE0D7F84C
:10363000143108330121184601F04CF9034687F88C
:10364000273104E0012387F8273100E000BF97F815
:103650002731002B0AD17F4B1B6D23F04051D7F847
:1036600014311B6F7B4A0B43136503E097F8273136
:1036700087F82631D7F81431D3E9002302F080739C
:10368000C7F8D0300023C7F8D430D7E934120B463E
:10369000134339D0D7F814319B6C032B1CD801A2EB
:1036A00052F823F0E1360008B5360008C3360008AA
:1036B000E1360008674BDB6A664A43F40033D362A5
:1036C0000FE0D7F8143108330221184601F002F94F
:1036D000034687F8273104E0012387F8273100E00B
:1036E00000BF97F82731002B0AD15A4BDB6C23F02F
:1036F0000301D7F814319B6C564A0B43D36403E0A3
:1037000097F8273187F82631D7F81431D3E9002309
:1037100002F48003C7F8C8300023C7F8CC30D7E9DB
:1037200032120B46134300F09F804B4B1B684A4AF2
:1037300043F480731360FDF79FFEC7F820010BE090
:10374000FDF79AFE0246D7F82031D31A642B03D92D
:10375000032387F8273105E03F4B1B6803F4807390
:10376000002BEDD097F82731002B79D1394B1A6F08
:10377000D7F81431D3F8B430534003F44073002B1E
:1037800015D0344B1B6F23F44073C7F81C31314BF9
:103790001B6F304A43F4803313672E4B1B6F2D4A47
:1037A00023F4803313672B4AD7F81C311367D7F8FB
:1037B0001431D3F8B430B3F5807F18D1FDF75CFE37
:1037C000C7F820010DE0FDF757FE0246D7F820317B
:1037D000D21A41F288339A4203D9032387F827315A
:1037E00005E01C4B1B6F03F00203002BEBD097F896
:1037F0002731002B29D1D7F81431D3F8B43003F492
:103800004073B3F5407F0ED1124B1B6923F47C51FA
:10381000D7F81431D3F8B4301A09104B13400D4ABD
:103820000B43136105E00B4B1B690A4A23F47C53DD
:103830001361084B196FD7F81431D3F8B430C3F3C0
:103840000B03044A0B4313670EE097F8273187F800
:10385000263109E00044025800480258CFFFFF001B
:1038600097F8273187F82631D7F81431D3E90023A8
:1038700002F00103C7F8C0300023C7F8C430D7E90D
:1038800030120B46134300F08980D7F81431DB6FF8
:10389000282B6BD801A252F823F000BF753900081D
:1038A0006D3900086D3900086D3900086D39000860
:1038B0006D3900086D3900086D390008413900087C
:1038C0006D3900086D3900086D3900086D39000840
:1038D0006D3900086D3900086D3900085739000846
:1038E0006D3900086D3900086D3900086D39000820
:1038F0006D3900086D3900086D3900087539000808
:103900006D3900086D3900086D3900086D390008FF
:103910006D3900086D3900086D39000875390008E7
:103920006D3900086D3900086D3900086D390008DF
:103930006D3900086D3900086D39000875390008C7
:10394000D7F8143108330121184600F0C3FF0346AD
:1039500087F827310FE0D7F81431283301211846B2
:1039600001F06AF8034687F8273104E0012387F85D
:10397000273100E000BF97F82731002B0AD1BF4B59
:103980005B6D23F03801D7F81431DB6FBB4A0B4372
:10399000536503E097F8273187F82631D7F81431BB
:1039A000D3E9002302F00203C7F8B8300023C7F8B8
:1039B000BC30D7E92E120B46134341D0D7F814314F
:1039C0009B6F052B24D801A252F823F0193A000866
:1039D000E5390008FB390008193A0008193A0008CF
:1039E000193A0008D7F8143108330121184600F0BD
:1039F00071FF034687F827310FE0D7F814312833D9
:103A00000121184601F018F8034687F8273104E031
:103A1000012387F8273100E000BF97F82731002BFA
:103A20000AD1964B5B6D23F00701D7F814319B6FD9
:103A3000924A0B43536503E097F8273187F8263104
:103A4000D7F81431D3E9002302F00403C7F8B030EB
:103A50000023C7F8B430D7E92C120B46134344D0E7
:103A6000D7F81431D3F89430052B25D801A252F899
:103A700023F000BFC13A00088D3A0008A33A0008BD
:103A8000C13A0008C13A0008C13A0008D7F8143119
:103A900008330121184600F01DFF034687F827313F
:103AA0000FE0D7F8143128330121184600F0C4FF85
:103AB000034687F8273104E0012387F8273100E027
:103AC00000BF97F82731002B0BD16C4B9B6D23F077
:103AD0000701D7F81431D3F89430684A0B43936543
:103AE00003E097F8273187F82631D7F81431D3E966
:103AF000002302F02003C7F8A8300023C7F8AC3039
:103B0000D7E92A120B46134355D0D7F81431D3F80E
:103B10009030B3F1A04F33D0B3F1A04F2CD8B3F114
:103B2000804F2FD0B3F1804F26D8B3F1405F2BD018
:103B3000B3F1405F20D8B3F1005F12D0B3F1005F62
:103B40001AD8002B22D0B3F1805F15D1D7F81431E9
:103B500008330021184600F0BDFE034687F82731E0
:103B600015E0D7F8143128330221184600F064FF1D
:103B7000034687F827310AE0012387F8273106E05A
:103B800000BF04E000BF02E000BF00E000BF97F804
:103B90002731002B0BD1394B5B6D23F0E041D7F877
:103BA0001431D3F89030354A0B43536503E097F84E
:103BB000273187F82631D7F81431D3E9002302F0F2
:103BC0004003C7F8A0300023C7F8A430D7E9281273
:103BD0000B46134358D0D7F81431D3F89C30B3F5C3
:103BE000A05F33D0B3F5A05F2CD8B3F5805F2FD0A2
:103BF000B3F5805F26D8B3F5406F2BD0B3F5406F97
:103C000020D8B3F5006F12D0B3F5006F1AD8002B8F
:103C100022D0B3F5806F15D1D7F8143108330021C5
:103C2000184600F057FE034687F8273115E0D7F80D
:103C3000143128330221184600F0FEFE034687F8AF
:103C400027310AE0012387F8273106E000BF04E0AE
:103C500000BF02E000BF00E000BF97F82731002B53
:103C60000ED1064B9B6D23F4E051D7F81431D3F8F5
:103C70009C30024A0B43936506E000BF00440258A3
:103C800097F8273187F82631D7F81431D3E9002384
:103C900002F08003C7F898300023C7F89C30D7E9BA
:103CA00026120B46134355D0D7F81431D3F8A03061
:103CB000B3F5204F33D0B3F5204F2CD8B3F5004FD8
:103CC0002FD0B3F5004F26D8B3F5C04F2BD0B3F5A6
:103CD000C04F20D8B3F5804F12D0B3F5804F1AD81B
:103CE000002B22D0B3F5005F15D1D7F8143108337B
:103CF0000021184600F0EEFD034687F8273115E055
:103D0000D7F8143128330221184600F095FE0346F7
:103D100087F827310AE0012387F8273106E000BF42
:103D200004E000BF02E000BF00E000BF97F82731C9
:103D3000002B0BD1A14B9B6D23F46041D7F81431BC
:103D4000D3F8A0309D4A0B43936503E097F82731E1
:103D500087F82631D7F81431D3E9002302F008039D
:103D6000C7F890300023C7F89430D7E924120B46E7
:103D700013431ED0D7F81431D3F88430B3F5805FE5
:103D80000CD1D7F8143128330221184600F054FE24
:103D90000346002B02D0012387F82631874B5B6D49
:103DA00023F44051D7F81431D3F88430834A0B43BD
:103DB0005365D7F81431D3E9002302F01003C7F894
:103DC00088300023C7F88C30D7E922120B46134302
:103DD0001ED0D7F81431D3F89830B3F5807F0CD1CA
:103DE000D7F8143128330221184600F025FE034687
:103DF000002B02D0012387F82631704B9B6D23F4F2
:103E00004071D7F81431D3F898306C4A0B4393655E
:103E1000D7F81431D3E9002302F40023C7F8803027
:103E20000023C7F88430D7E920120B4613433ED055
:103E3000D7F81431D3F8A430B3F5003F22D0B3F54E
:103E4000003F1BD8002B03D0B3F5803F0BD015E00B
:103E5000D7F8143108330021184600F03BFD034623
:103E600087F827310FE0D7F814312833022118469C
:103E700000F0E2FD034687F8273104E0012387F8CC
:103E8000273100E000BF97F82731002B0BD14B4BB7
:103E90009B6D23F44031D7F81431D3F8A430474A4E
:103EA0000B43936503E097F8273187F82631D7F85D
:103EB0001431D3E9002302F48023BB670023FB679E
:103EC000D7E91E120B4613433BD0D7F81431D3F871
:103ED0008830B3F5401F1FD0B3F5401F18D8B3F595
:103EE000801F03D0B3F5001F07D011E0334BDB6A0E
:103EF000324A43F40033D3620FE0D7F81431283349
:103F00000121184600F098FD034687F8273104E0A8
:103F1000012387F8273100E000BF97F82731002BF5
:103F20000BD1264B5B6D23F44011D7F81431D3F835
:103F30008830224A0B43536503E097F8273187F80E
:103F40002631D7F81431D3E9002302F480333B67DC
:103F500000237B67D7E91C120B46134334D0D7F8F4
:103F600014311B6D002B03D0B3F5803F07D011E057
:103F7000124BDB6A114A43F40033D3620EE0D7F8E8
:103F8000143108330221184600F0A4FC034687F8D8
:103F9000273103E0012387F8273100BF97F8273145
:103FA000002B0DD1054BDB6C23F48031D7F8143195
:103FB0001B6D024A0B43D36406E000BF0044025865
:103FC00097F8273187F82631D7F81431D3E9002341
:103FD00002F00053BB660023FB66D7E91A120B46BA
:103FE00013430CD0D7F8143128330221184600F0BF
:103FF00023FD0346002B02D0012387F82631D7F892
:104000001431D3E9002302F400333B6600237B66BE
:10401000D7E918120B46134338D0D7F81431D3F828
:104020008030B3F5407F18D0B3F5407F11D8B3F599
:10403000007F14D0B3F5007F0BD8002B11D0B3F55F
:10404000807F06D1C34BDB6AC24A43F40033D3629C
:1040500008E0012387F8273104E000BF02E000BF39
:1040600000E000BF97F82731002B0BD1B94B5B6DF7
:1040700023F44071D7F81431D3F88030B54A0B439C
:10408000536503E097F8273187F82631D7F81431C4
:10409000D3E9002302F48013BB650023FB65D7E955
:1040A00016120B46134309D0AA4B1B6D23F0004197
:1040B000D7F814315B6FA74A0B431365D7F8143157
:1040C000D3E9002302F080533B6500237B65D7E9E9
:1040D00014120B4613430AD09E4B1B6923F48041F4
:1040E000D7F81431D3F8B8309A4A0B431361D7F894
:1040F0001431D3E9002302F40013BB640023FB64F2
:10410000D7E912120B46134309D0924B1B6D23F0D3
:104110008071D7F81431DB6E8E4A0B431365D7F8E4
:104120001431D3E9002302F080433B6400237B6415
:10413000D7E910120B4613430ED0864B1B69854AF4
:1041400023F400431361834B1969D7F81431D3F872
:10415000BC30804A0B431361D7F81431D3E90023F4
:1041600002F00043BB630023FB63D7E90E120B464A
:10417000134309D0774BDB6C23F04051D7F814314F
:104180005B6D744A0B43D364D7F81431D3E9002331
:1041900002F400033B6300237B63D7E90C120B4658
:1041A00013430AD06B4B5B6D23F44001D7F81431F5
:1041B000D3F88C30674A0B435365D7F81431D3E9F1
:1041C00000230021B96203F00103FB62D7E90A1260
:1041D0000B46134311D0D7F8143108330021184689
:1041E00000F078FB034687F8273197F82731002B3A
:1041F00003D097F8273187F82631D7F81431D3E95F
:1042000000230021396203F002037B62D7E9081220
:104210000B46134311D0D7F8143108330121184647
:1042200000F058FB034687F8273197F82731002B19
:1042300003D097F8273187F82631D7F81431D3E91E
:1042400000230021B96103F00403FB61D7E90612E2
:104250000B46134311D0D7F8143108330221184606
:1042600000F038FB034687F8273197F82731002BF9
:1042700003D097F8273187F82631D7F81431D3E9DE
:1042800000230021396103F008037B61D7E90412A0
:104290000B46134311D0D7F81431283300211846A8
:1042A00000F0CAFB034687F8273197F82731002B27
:1042B00003D097F8273187F82631D7F81431D3E99E
:1042C00000230021B96003F01003FB60D7E902125C
:1042D0000B46134311D0D7F8143128330121184667
:1042E00000F0AAFB034687F8273197F82731002B07
:1042F00003D097F8273187F82631D7F81431D3E95E
:1043000000230021396003F020037B60D7E900120D
:104310000B46134311D0D7F8143128330221184625
:1043200000F08AFB034687F8273197F82731002BE6
:1043300003D097F8273187F8263197F82631002BDC
:1043400001D1002300E00123184607F59477BD460C
:10435000BDE8B08F0044025880B500AFFEF754FDB1
:104360000246064B1B6A1B0903F007030449CB5C9A
:1043700003F01F0322FA03F3184680BD00440258DD
:10438000A88F000880B489B000AF7860A14B9B6A09
:1043900003F00303BB619F4B9B6A1B0B03F03F03BE
:1043A0007B619C4BDB6A1B0903F001033B61994B6A
:1043B000DB6BDB08C3F30C033A6902FB03F307EE84
:1043C000903AF8EE677AC7ED037A7B69002B00F02C
:1043D0001181BB69022B00F08380BB69022B00F2C4
:1043E000A180BB69002B03D0BB69012B56D099E09B
:1043F000884B1B6803F02003002B2DD0854B1B68D6
:10440000DB0803F00303844A22FA03F3BB60BB68B2
:1044100007EE903AF8EE676A7B6907EE903AF8EE9D
:10442000677A86EEA77A7B4B9B6BC3F3080307EE94
:10443000903AF8EE676A97ED036ADFED785AC6EEB8
:10444000257A76EEA77AF7EE006A77EEA67A67EE1F
:10445000277AC7ED077A87E07B6907EE903AF8EE96
:10446000677ADFED6F6A86EEA77A6A4B9B6BC3F3C0
:10447000080307EE903AF8EE676A97ED036ADFEDFE
:10448000675AC6EE257A76EEA77AF7EE006A77EEDF
:10449000A67A67EE277AC7ED077A65E07B6907EEB3
:1044A000903AF8EE677ADFED5F6A86EEA77A594BAD
:1044B0009B6BC3F3080307EE903AF8EE676A97ED3B
:1044C000036ADFED565AC6EE257A76EEA77AF7EE46
:1044D000006A77EEA67A67EE277AC7ED077A43E09F
:1044E0007B6907EE903AF8EE677ADFED4F6A86EE69
:1044F000A77A484B9B6BC3F3080307EE903AF8EE9C
:10450000676A97ED036ADFED455AC6EE257A76EEC7
:10451000A77AF7EE006A77EEA67A67EE277AC7EDFC
:10452000077A21E07B6907EE903AF8EE677ADFEDD3
:104530003D6A86EEA77A374B9B6BC3F3080307EE01
:10454000903AF8EE676A97ED036ADFED345AC6EEEB
:10455000257A76EEA77AF7EE006A77EEA67A67EE0E
:10456000277AC7ED077A00BF2A4B9B6B5B0A03F0E3
:104570007F0307EE903AF8EE677AB7EE007A37EEEF
:10458000877AD7ED076AC6EE877AFCEEE77A17EEF0
:10459000902A7B681A601F4B9B6B1B0C03F07F03F8
:1045A00007EE903AF8EE677AB7EE007A37EE877A40
:1045B000D7ED076AC6EE877AFCEEE77A17EE902A07
:1045C0007B685A60134B9B6B1B0E03F07F0307EE57
:1045D000903AF8EE677AB7EE007A37EE877AD7ED41
:1045E000076AC6EE877AFCEEE77A17EE902A7B68B8
:1045F0009A6008E07B6800221A607B6800225A609B
:104600007B6800229A6000BF2437BD465DF8047BBA
:10461000704700BF004402580090D00300000046DD
:104620000024744C0024744A20BCBE4B80B489B072
:1046300000AF7860A14B9B6A03F00303BB619F4B03
:104640009B6A1B0D03F03F037B619C4BDB6A1B0ADB
:1046500003F001033B61994B5B6CDB08C3F30C0374
:104660003A6902FB03F307EE903AF8EE677AC7ED7A
:10467000037A7B69002B00F01181BB69022B00F0EB
:104680008380BB69022B00F2A180BB69002B03D0A1
:10469000BB69012B56D099E0884B1B6803F02003BF
:1046A000002B2DD0854B1B68DB0803F00303844AE5
:1046B00022FA03F3BB60BB6807EE903AF8EE676A34
:1046C0007B6907EE903AF8EE677A86EEA77A7B4B25
:1046D0001B6CC3F3080307EE903AF8EE676A97ED98
:1046E000036ADFED785AC6EE257A76EEA77AF7EE02
:1046F000006A77EEA67A67EE277AC7ED077A87E039
:104700007B6907EE903AF8EE677ADFED6F6A86EE26
:10471000A77A6A4B1B6CC3F3080307EE903AF8EED6
:10472000676A97ED036ADFED675AC6EE257A76EE83
:10473000A77AF7EE006A77EEA67A67EE277AC7EDDA
:10474000077A65E07B6907EE903AF8EE677ADFED6D
:104750005F6A86EEA77A594B1B6CC3F3080307EE1A
:10476000903AF8EE676A97ED036ADFED565AC6EEA7
:10477000257A76EEA77AF7EE006A77EEA67A67EEEC
:10478000277AC7ED077A43E07B6907EE903AF8EEA7
:10479000677ADFED4F6A86EEA77A484B1B6CC3F34E
:1047A000080307EE903AF8EE676A97ED036ADFEDCB
:1047B000455AC6EE257A76EEA77AF7EE006A77EECE
:1047C000A67A67EE277AC7ED077A21E07B6907EEC4
:1047D000903AF8EE677ADFED3D6A86EEA77A374BBE
:1047E0001B6CC3F3080307EE903AF8EE676A97ED87
:1047F000036ADFED345AC6EE257A76EEA77AF7EE35
:10480000006A77EEA67A67EE277AC7ED077A00BFCF
:104810002A4B1B6C5B0A03F07F0307EE903AF8EE1D
:10482000677AB7EE007A37EE877AD7ED076AC6EE79
:10483000877AFCEEE77A17EE902A7B681A601F4BA6
:104840001B6C1B0C03F07F0307EE903AF8EE677ABF
:10485000B7EE007A37EE877AD7ED076AC6EE877A29
:10486000FCEEE77A17EE902A7B685A60134B1B6CBC
:104870001B0E03F07F0307EE903AF8EE677AB7EE6F
:10488000007A37EE877AD7ED076AC6EE877AFCEEB4
:10489000E77A17EE902A7B689A6008E07B6800222E
:1048A0001A607B6800225A607B6800229A6000BF11
:1048B0002437BD465DF8047B704700BF00440258B2
:1048C0000090D003000000460024744C0024744A79
:1048D00020BCBE4B80B584B000AF78603960002347
:1048E000FB73534B9B6A03F00303032B01D101239A
:1048F00099E04F4B1B684E4A23F080631360FCF72E
:10490000BBFDB86008E0FCF7B7FD0246BB68D31AF0
:10491000022B01D9032386E0454B1B6803F000639B
:10492000002BF0D1424B9B6A23F47C327B681B68DE
:104930001B033F4913438B627B685B68013BC3F3F6
:1049400008027B689B68013B5B029BB21A437B6851
:10495000DB68013B1B0403F4FE031A437B681B69FD
:10496000013B1B0603F0FE43314913438B63304B7D
:10497000DB6A23F0C0027B685B692D491343CB627D
:104980002B4BDB6A23F020027B689B692849134389
:10499000CB62274BDB6A264A23F01003D362244BF9
:1049A000DA6B244B13407A68D269D2002049134352
:1049B000CB631F4BDB6A1E4A43F01003D3623B6894
:1049C000002B06D11A4BDB6A194A43F40023D36249
:1049D0000FE03B68012B06D1154BDB6A144A43F408
:1049E0008013D36205E0124BDB6A114A43F40013D3
:1049F000D3620F4B1B680E4A43F080631360FCF7D1
:104A00003BFDB86008E0FCF737FD0246BB68D31AEF
:104A1000022B01D9032306E0054B1B6803F000635A
:104A2000002BF0D0FB7B18461037BD4680BD00BF81
:104A3000004402580700FFFF80B584B000AF7860E3
:104A400039600023FB73534B9B6A03F00303032B72
:104A500001D1012399E04F4B1B684E4A23F080534C
:104A60001360FCF709FDB86008E0FCF705FD02469D
:104A7000BB68D31A022B01D9032386E0454B1B6880
:104A800003F00053002BF0D1424B9B6A23F07C7261
:104A90007B681B681B053F4913438B627B685B681F
:104AA000013BC3F308027B689B68013B5B029BB23E
:104AB0001A437B68DB68013B1B0403F4FE031A43C3
:104AC0007B681B69013B1B0603F0FE43314913431E
:104AD0000B64304BDB6A23F440627B685B692D49D1
:104AE0001343CB622B4BDB6A23F400727B689B6918
:104AF00028491343CB62274BDB6A264A23F4807391
:104B0000D362244B5A6C244B13407A68D269D2008A
:104B1000204913434B641F4BDB6A1E4A43F48073E6
:104B2000D3623B68002B06D11A4BDB6A194A43F467
:104B30008003D3620FE03B68012B06D1154BDB6A83
:104B4000144A43F40003D36205E0124BDB6A114AB6
:104B500043F08073D3620F4B1B680E4A43F08053BF
:104B60001360FCF789FCB86008E0FCF785FC02469E
:104B7000BB68D31A022B01D9032306E0054B1B683F
:104B800003F00053002BF0D0FB7B18461037BD46D6
:104B900080BD00BF004402580700FFFF80B584B00D
:104BA00000AF78607B68002B01D101230FE17B68A7
:104BB00000229A627B681B68874A93420FD07B6809
:104BC0001B68864A93420AD07B681B68844A9342DA
:104BD00005D07B68DB680F2B01D90123F7E07868EB
:104BE00000F000F9F8607B681B687B4A93420CD0A8
:104BF0007B681B68794A934207D07B681B68784AB8
:104C0000934202D0FB68082B11D87B681B68724A5C
:104C1000934209D07B681B68704A934204D07B683A
:104C20001B686F4A934204D1FB68102B01D9012302
:104C3000CDE07B6893F88130DBB2002B06D17B6836
:104C4000002283F880207868FCF77AF97B680222DA
:104C500083F881207B681B681A687B681B6822F0D8
:104C600001021A607B681B689B6803F4F813BB6041
:104C70007B689B69B3F1806F19D17B685B68B3F582
:104C8000800F03D17B689B6B002B08D07B685B682F
:104C9000002B0CD17B689B6BB3F1805F07D17B68E5
:104CA0001B681A687B681B6842F480521A607B6834
:104CB0005B6803F48003002B0FD07B68DB68062B56
:104CC0000BD97B681B681B6823F480717B681A6DA5
:104CD0007B681B680A431A6007E07B681B681A68D8
:104CE0007B681B6822F480721A607B68DA697B68D3
:104CF0009B6A1A43BB681A437B68DB6B42EA030179
:104D00007B68DA687B681B680A439A607B685A6B29
:104D10007B685B6A1A437B689B6B1A437B689B6961
:104D20001A437B681B691A437B685B691A437B687B
:104D30001B6A1A437B685B681A437B68DB6C1A4307
:104D40007B689B681A437B689B6C42EA03017B6823
:104D50009A6D7B681B680A43DA607B685B68002B8E
:104D600013D17B681B689B6823F4C0527B681B6867
:104D700042F400629A607B681B689B6823F4C062FF
:104D80007B681B6842F480629A607B681B681A6DBE
:104D90007B681B6822F001021A657B685B6803F47C
:104DA0008003002B0AD07B681B68DB6823F000417E
:104DB0007B685A6D7B681B680A43DA607B68002257
:104DC000C3F884207B68012283F8812000231846E1
:104DD0001037BD4680BD00BF0030014000380040A4
:104DE000003C004080B485B000AF78607B68DB6B2E
:104DF0005B090133FB607B68DB680133BB60BB6828
:104E00000733DB08BB60BB68FA6802FB03F3184694
:104E10001437BD465DF8047B704780B582B000AFA3
:104E200078607B68002B01D1012349E07B6893F80F
:104E30003D30DBB2002B06D17B68002283F83C209A
:104E4000786800F041F87B68022283F83D207B6897
:104E50001A687B6804331946104600F0E7F97B684E
:104E6000012283F848207B68012283F83E207B687A
:104E7000012283F83F207B68012283F840207B6871
:104E8000012283F841207B68012283F842207B685D
:104E9000012283F843207B68012283F844207B6849
:104EA000012283F845207B68012283F846207B6835
:104EB000012283F847207B68012283F83D200023EC
:104EC00018460837BD4680BD80B483B000AF786017
:104ED00000BF0C37BD465DF8047B704780B485B0D9
:104EE00000AF78607B6893F83D30DBB2012B01D0D6
:104EF000012354E07B68022283F83D207B681B6815
:104F0000DA687B681B6842F00102DA607B681B6824
:104F1000264A934222D07B681B68B3F1804F1DD094
:104F20007B681B68224A934218D07B681B68214A21
:104F3000934213D07B681B681F4A93420ED07B6854
:104F40001B681E4A934209D07B681B681C4A934227
:104F500004D07B681B681B4A934215D17B681B6891
:104F60009A68194B1340FB60FB68062B15D0FB6851
:104F7000B3F5803F11D07B681B681A687B681B689B
:104F800042F001021A6008E07B681B681A687B68BF
:104F90001B6842F001021A6000E000BF00231846BF
:104FA0001437BD465DF8047B704700BF0000014028
:104FB0000004004000080040000C004000040140D4
:104FC00000180040004001400700010080B584B097
:104FD00000AF78607B681B68DB68FB607B681B68E0
:104FE0001B69BB60BB6803F00203002B20D0FB6889
:104FF00003F00203002B1BD07B681B686FF00202DA
:105000001A617B6801221A777B681B689B6903F031
:105010000303002B03D0786800F0E9F805E0786816
:1050200000F0DBF8786800F0ECF87B6800221A7773
:10503000BB6803F00403002B20D0FB6803F00403DB
:10504000002B1BD07B681B686FF004021A617B6821
:1050500002221A777B681B689B6903F44073002B5C
:1050600003D0786800F0C3F805E0786800F0B5F880
:10507000786800F0C6F87B6800221A77BB6803F0F6
:105080000803002B20D0FB6803F00803002B1BD083
:105090007B681B686FF008021A617B6804221A772C
:1050A0007B681B68DB6903F00303002B03D078687F
:1050B00000F09DF805E0786800F08FF8786800F05F
:1050C000A0F87B6800221A77BB6803F01003002B5E
:1050D00020D0FB6803F01003002B1BD07B681B68FB
:1050E0006FF010021A617B6808221A777B681B68D0
:1050F000DB6903F44073002B03D0786800F077F885
:1051000005E0786800F069F8786800F07AF87B6864
:1051100000221A77BB6803F00103002B0CD0FB6858
:1051200003F00103002B07D07B681B686FF00102BE
:105130001A617868FBF7FCFDBB6803F08003002B65
:1051400004D1BB6803F40053002B0CD0FB6803F0C0
:105150008003002B07D07B681B686FF402521A6132
:10516000786800F00DF9BB6803F48073002B0CD055
:10517000FB6803F08003002B07D07B681B686FF48B
:1051800080721A61786800F005F9BB6803F040038B
:10519000002B0CD0FB6803F04003002B07D07B688A
:1051A0001B686FF040021A61786800F034F8BB6841
:1051B00003F02003002B0CD0FB6803F02003002B2E
:1051C00007D07B681B686FF020021A61786800F0D6
:1051D000CDF800BF1037BD4680BD80B483B000AFAE
:1051E000786000BF0C37BD465DF8047B704780B423
:1051F00083B000AF786000BF0C37BD465DF8047B1C
:10520000704780B483B000AF786000BF0C37BD46F4
:105210005DF8047B704780B483B000AF786000BF56
:105220000C37BD465DF8047B7047000080B485B044
:1052300000AF786039607B681B68FB607B68434A1D
:10524000934213D07B68B3F1804F0FD07B68404A04
:1052500093420BD07B683F4A934207D07B683E4A1B
:10526000934203D07B683D4A934208D1FB6823F008
:105270007003FB603B685B68FA681343FB607B6804
:10528000324A93421FD07B68B3F1804F1BD07B68BA
:105290002F4A934217D07B682E4A934213D07B68E3
:1052A0002D4A93420FD07B682C4A93420BD07B68E7
:1052B0002B4A934207D07B682A4A934203D07B68EB
:1052C000294A934208D1FB6823F44073FB603B6892
:1052D000DB68FA681343FB60FB6823F080023B68DD
:1052E0005B691343FB603B689A687B68DA623B68E2
:1052F0001A687B689A627B68144A93420FD07B6875
:10530000164A93420BD07B68154A934207D07B68BC
:10531000144A934203D07B68134A934203D13B68FB
:105320001A697B681A637B681B6843F004027B6818
:105330001A607B6801225A617B68FA681A6000BFB4
:105340001437BD465DF8047B704700BF0000014084
:105350000004004000080040000C00400004014030
:1053600000400140004401400048014080B483B047
:1053700000AF786000BF0C37BD465DF8047B704716
:1053800080B483B000AF786000BF0C37BD465DF8D5
:10539000047B704780B483B000AF786000BF0C37E7
:1053A000BD465DF8047B704780B582B000AF786081
:1053B0007B68002B01D1012342E07B68D3F8883061
:1053C000002B06D17B68002283F884207868FBF7E5
:1053D0004DFD7B682422C3F888207B681B681A680F
:1053E0007B681B6822F001021A607B689B6A002BB5
:1053F00002D0786800F090FD786800F025F8034648
:10540000012B01D101231BE07B681B685A687B6874
:105410001B6822F490425A607B681B689A687B681C
:105420001B6822F02A029A607B681B681A687B68F6
:105430001B6842F001021A60786800F00FFE034614
:1054400018460837BD4680BD2DE9B04F92B000AF79
:105450007861002387F842307B699A687B691B6911
:105460001A437B695B691A437B69DB6913437B647D
:105470007B691B681A68BE4B13407A691268796CA5
:105480000B4313607B691B685B6823F440517B69A5
:10549000DA687B691B680A435A607B699B697B6495
:1054A0007B691B68B34A934204D07B691B6A7A6CA0
:1054B00013437B647B691B689A68AF4B13407A691E
:1054C0001268796C0B4393607B691B68DB6A23F07D
:1054D0000F017B695A6A7B691B680A43DA627B6940
:1054E0001B68A64A934277D1A54B5B6D03F0380346
:1054F000282B6DD801A252F823F000BFA155000857
:10550000D1550008D1550008D1550008D1550008E3
:10551000D1550008D1550008D1550008A9550008FB
:10552000D1550008D1550008D1550008D1550008C3
:10553000D1550008D1550008D1550008B1550008D3
:10554000D1550008D1550008D1550008D1550008A3
:10555000D1550008D1550008D1550008B9550008AB
:10556000D1550008D1550008D1550008D155000883
:10557000D1550008D1550008D1550008C155000883
:10558000D1550008D1550008D1550008D155000863
:10559000D1550008D1550008D1550008C95500085B
:1055A000012387F8433022E2042387F843301EE2C8
:1055B000082387F843301AE2102387F8433016E2B5
:1055C000202387F8433012E2402387F843300EE26D
:1055D000802387F843300AE27B691B68694A93425B
:1055E00030D1674B5B6D03F00703052B26D801A272
:1055F00052F823F00D560008155600081D560008F5
:10560000255600082D56000835560008002387F857
:105610004330ECE1042387F84330E8E1082387F8BE
:105620004330E4E1102387F84330E0E1202387F89A
:105630004330DCE1402387F84330D8E1802387F80A
:105640004330D4E17B691B684F4A934230D14C4BC5
:105650005B6D03F00703052B26D801A252F823F057
:1056600079560008815600088956000891560008AE
:1056700099560008A1560008002387F84330B6E188
:10568000042387F84330B2E1082387F84330AEE1C2
:10569000102387F84330AAE1202387F84330A6E19E
:1056A000402387F84330A2E1802387F843309EE10E
:1056B0007B691B68354A934230D1314B5B6D03F0F7
:1056C0000703052B26D801A252F823F0E55600085F
:1056D000ED560008F5560008FD560008055700086D
:1056E0000D570008002387F8433080E1042387F832
:1056F00043307CE1082387F8433078E1102387F8B2
:10570000433074E1202387F8433070E1402387F869
:1057100043306CE1802387F8433068E17B691B6884
:105720001B4A934242D1164B5B6D03F00703052BD6
:1057300038D801A252F823F05157000859570008F1
:105740006157000869570008955700089D570008E1
:10575000002387F843304AE1042387F8433046E1C9
:10576000082387F8433042E1102387F843303EE1B5
:10577000F369FFCF000C0058FFF4FF110010014047
:10578000004402580044004000480040004C0040E3
:1057900000500040202387F8433028E1402387F859
:1057A000433024E1802387F8433020E17B691B6884
:1057B000CB4A934276D1CB4B5B6D03F03803282B59
:1057C0006CD801A252F823F06D5800089D580008CB
:1057D0009D5800089D5800089D5800089D580008D5
:1057E0009D5800089D580008755800089D580008ED
:1057F0009D5800089D5800089D5800089D580008B5
:105800009D5800089D5800087D5800089D580008C4
:105810009D5800089D5800089D5800089D58000894
:105820009D5800089D580008855800089D5800089C
:105830009D5800089D5800089D5800089D58000874
:105840009D5800089D5800088D5800089D58000874
:105850009D5800089D5800089D5800089D58000854
:105860009D5800089D58000895580008012387F8A6
:105870004330BCE0042387F84330B8E0082387F8BE
:105880004330B4E0102387F84330B0E0202387F89A
:105890004330ACE0402387F84330A8E0802387F80A
:1058A0004330A4E07B691B688F4A934230D18D4B13
:1058B0005B6D03F00703052B26D801A252F823F0F5
:1058C000D9580008E1580008E9580008F1580008C4
:1058D000F958000801590008002387F8433086E092
:1058E000042387F8433082E0082387F843307EE0C2
:1058F000102387F843307AE0202387F8433076E09E
:10590000402387F8433072E0802387F843306EE00D
:105910007B691B68754A934230D1724B5B6D03F013
:105920000703052B26D801A252F823F04559000899
:105930004D590008555900085D590008655900087F
:105940006D590008002387F8433050E0042387F89E
:1059500043304CE0082387F8433048E0102387F8B1
:10596000433044E0202387F8433040E0402387F869
:1059700043303CE0802387F8433038E07B691B6884
:105980005B4A934230D1574B9B6D03F00703052BC5
:1059900026D801A252F823F0B1590008B9590008DD
:1059A000C1590008C9590008D1590008D95900083F
:1059B000022387F843301AE0042387F8433016E0C7
:1059C000082387F8433012E0102387F843300EE0B5
:1059D000202387F843300AE0402387F8433006E06D
:1059E000802387F8433002E0802387F843307B69C7
:1059F0001B683F4A934240F0F88097F84330202BD1
:105A000046DC022BC0F28280023B1E2B7ED801A214
:105A100052F823F0975A00080D5B00089F5A0008BF
:105A20000D5B00080D5B00080D5B0008AF5A000815
:105A30000D5B00080D5B00080D5B00080D5B0008A6
:105A40000D5B00080D5B00080D5B0008BF5A0008E5
:105A50000D5B00080D5B00080D5B00080D5B000886
:105A60000D5B00080D5B00080D5B00080D5B000876
:105A70000D5B00080D5B00080D5B00080D5B000866
:105A80000D5B00080D5B00080D5B0008FF5A000865
:105A9000402B37D03AE0FEF75FFCF8633CE007F1BB
:105AA00024031846FEF76EFCBB6AFB6334E007F183
:105AB00018031846FEF7BAFDFB69FB632CE0094B9F
:105AC0001B6803F02003002B16D0064B1B68DB0875
:105AD00003F00303074A22FA03F3FB631CE000BF51
